{
  "address": "0x3332c80aCE2054ABAf3752a32f08CbBD0b0B3587",
  "abi": [
    {
      "inputs": [
        {
          "internalType": "uint256",
          "name": "amount0",
          "type": "uint256"
        },
        {
          "internalType": "uint256",
          "name": "amount1",
          "type": "uint256"
        },
        {
          "internalType": "uint256",
          "name": "ratio0",
          "type": "uint256"
        },
        {
          "internalType": "uint256",
          "name": "ratio1",
          "type": "uint256"
        }
      ],
      "name": "SwapError",
      "type": "error"
    },
    {
      "anonymous": false,
      "inputs": [
        {
          "indexed": false,
          "internalType": "uint256",
          "name": "fee0",
          "type": "uint256"
        },
        {
          "indexed": false,
          "internalType": "uint256",
          "name": "fee1",
          "type": "uint256"
        }
      ],
      "name": "CollectRewards",
      "type": "event"
    },
    {
      "inputs": [
        {
          "internalType": "uint256",
          "name": "tokenId",
          "type": "uint256"
        },
        {
          "internalType": "address",
          "name": "recipient",
          "type": "address"
        },
        {
          "internalType": "address",
          "name": "feeRecipient",
          "type": "address"
        }
      ],
      "name": "closePosition",
      "outputs": [],
      "stateMutability": "nonpayable",
      "type": "function"
    },
    {
      "inputs": [],
      "name": "eid",
      "outputs": [
        {
          "internalType": "uint32",
          "name": "",
          "type": "uint32"
        }
      ],
      "stateMutability": "view",
      "type": "function"
    },
    {
      "inputs": [
        {
          "internalType": "uint256",
          "name": "tokenId",
          "type": "uint256"
        }
      ],
      "name": "getPool",
      "outputs": [
        {
          "internalType": "address",
          "name": "poolId",
          "type": "address"
        }
      ],
      "stateMutability": "view",
      "type": "function"
    },
    {
      "inputs": [
        {
          "internalType": "address",
          "name": "pair",
          "type": "address"
        }
      ],
      "name": "getPoolData",
      "outputs": [
        {
          "components": [
            {
              "internalType": "address",
              "name": "token0",
              "type": "address"
            },
            {
              "internalType": "address",
              "name": "token1",
              "type": "address"
            },
            {
              "internalType": "uint160",
              "name": "sqrtPriceX96",
              "type": "uint160"
            },
            {
              "internalType": "int24",
              "name": "currentTick",
              "type": "int24"
            },
            {
              "internalType": "int24",
              "name": "tickSpacing",
              "type": "int24"
            }
          ],
          "internalType": "struct IProtocolFacet.PoolData",
          "name": "poolData",
          "type": "tuple"
        }
      ],
      "stateMutability": "view",
      "type": "function"
    },
    {
      "inputs": [
        {
          "internalType": "address",
          "name": "pair",
          "type": "address"
        }
      ],
      "name": "getPoolDecimals",
      "outputs": [
        {
          "internalType": "uint256",
          "name": "",
          "type": "uint256"
        },
        {
          "internalType": "uint256",
          "name": "",
          "type": "uint256"
        }
      ],
      "stateMutability": "view",
      "type": "function"
    },
    {
      "inputs": [
        {
          "internalType": "address",
          "name": "pair",
          "type": "address"
        }
      ],
      "name": "getPoolSqrtRatioX96",
      "outputs": [
        {
          "internalType": "uint160",
          "name": "sqrtRatioX96",
          "type": "uint160"
        }
      ],
      "stateMutability": "view",
      "type": "function"
    },
    {
      "inputs": [
        {
          "internalType": "address",
          "name": "pair",
          "type": "address"
        }
      ],
      "name": "getPoolTick",
      "outputs": [
        {
          "internalType": "int24",
          "name": "tick",
          "type": "int24"
        }
      ],
      "stateMutability": "view",
      "type": "function"
    },
    {
      "inputs": [
        {
          "internalType": "address",
          "name": "pair",
          "type": "address"
        }
      ],
      "name": "getPoolTickSpacing",
      "outputs": [
        {
          "internalType": "int24",
          "name": "",
          "type": "int24"
        }
      ],
      "stateMutability": "view",
      "type": "function"
    },
    {
      "inputs": [
        {
          "internalType": "address",
          "name": "pair",
          "type": "address"
        }
      ],
      "name": "getPoolTokens",
      "outputs": [
        {
          "internalType": "address",
          "name": "",
          "type": "address"
        },
        {
          "internalType": "address",
          "name": "",
          "type": "address"
        }
      ],
      "stateMutability": "view",
      "type": "function"
    },
    {
      "inputs": [
        {
          "internalType": "uint256",
          "name": "tokenId",
          "type": "uint256"
        }
      ],
      "name": "getPositionAmounts",
      "outputs": [
        {
          "internalType": "uint256",
          "name": "amount0",
          "type": "uint256"
        },
        {
          "internalType": "uint256",
          "name": "amount1",
          "type": "uint256"
        }
      ],
      "stateMutability": "view",
      "type": "function"
    },
    {
      "inputs": [
        {
          "internalType": "uint256",
          "name": "tokenId",
          "type": "uint256"
        }
      ],
      "name": "getPositionTicks",
      "outputs": [
        {
          "internalType": "int24",
          "name": "tickLower",
          "type": "int24"
        },
        {
          "internalType": "int24",
          "name": "tickUpper",
          "type": "int24"
        }
      ],
      "stateMutability": "view",
      "type": "function"
    },
    {
      "inputs": [
        {
          "internalType": "uint256",
          "name": "tokenId",
          "type": "uint256"
        }
      ],
      "name": "getPositionTokens",
      "outputs": [
        {
          "internalType": "address",
          "name": "token0",
          "type": "address"
        },
        {
          "internalType": "address",
          "name": "token1",
          "type": "address"
        }
      ],
      "stateMutability": "view",
      "type": "function"
    },
    {
      "inputs": [
        {
          "internalType": "address",
          "name": "owner",
          "type": "address"
        }
      ],
      "name": "getPositions",
      "outputs": [
        {
          "components": [
            {
              "internalType": "string",
              "name": "platform",
              "type": "string"
            },
            {
              "internalType": "uint256",
              "name": "tokenId",
              "type": "uint256"
            },
            {
              "internalType": "address",
              "name": "poolId",
              "type": "address"
            },
            {
              "internalType": "address",
              "name": "token0",
              "type": "address"
            },
            {
              "internalType": "address",
              "name": "token1",
              "type": "address"
            },
            {
              "internalType": "uint256",
              "name": "decimals0",
              "type": "uint256"
            },
            {
              "internalType": "uint256",
              "name": "decimals1",
              "type": "uint256"
            },
            {
              "internalType": "string",
              "name": "symbol0",
              "type": "string"
            },
            {
              "internalType": "string",
              "name": "symbol1",
              "type": "string"
            },
            {
              "internalType": "uint256",
              "name": "amount0",
              "type": "uint256"
            },
            {
              "internalType": "uint256",
              "name": "amount1",
              "type": "uint256"
            },
            {
              "internalType": "uint256",
              "name": "fee0",
              "type": "uint256"
            },
            {
              "internalType": "uint256",
              "name": "fee1",
              "type": "uint256"
            },
            {
              "internalType": "uint256",
              "name": "emissions",
              "type": "uint256"
            },
            {
              "internalType": "int24",
              "name": "tickLower",
              "type": "int24"
            },
            {
              "internalType": "int24",
              "name": "tickUpper",
              "type": "int24"
            },
            {
              "internalType": "int24",
              "name": "currentTick",
              "type": "int24"
            },
            {
              "internalType": "bool",
              "name": "isStaked",
              "type": "bool"
            }
          ],
          "internalType": "struct IProtocolFacet.PositionInfo[]",
          "name": "result",
          "type": "tuple[]"
        }
      ],
      "stateMutability": "view",
      "type": "function"
    },
    {
      "inputs": [
        {
          "internalType": "uint256",
          "name": "tokenId",
          "type": "uint256"
        },
        {
          "internalType": "uint256",
          "name": "amount0",
          "type": "uint256"
        },
        {
          "internalType": "uint256",
          "name": "amount1",
          "type": "uint256"
        }
      ],
      "name": "increaseLiquidity",
      "outputs": [
        {
          "internalType": "uint128",
          "name": "liquidity",
          "type": "uint128"
        }
      ],
      "stateMutability": "nonpayable",
      "type": "function"
    },
    {
      "inputs": [
        {
          "internalType": "address",
          "name": "pair",
          "type": "address"
        },
        {
          "internalType": "int24",
          "name": "tickRange0",
          "type": "int24"
        },
        {
          "internalType": "int24",
          "name": "tickRange1",
          "type": "int24"
        },
        {
          "internalType": "uint256",
          "name": "amountOut0",
          "type": "uint256"
        },
        {
          "internalType": "uint256",
          "name": "amountOut1",
          "type": "uint256"
        },
        {
          "internalType": "address",
          "name": "recipient",
          "type": "address"
        }
      ],
      "name": "mintPosition",
      "outputs": [
        {
          "internalType": "uint256",
          "name": "tokenId",
          "type": "uint256"
        }
      ],
      "stateMutability": "nonpayable",
      "type": "function"
    },
    {
      "inputs": [],
      "name": "npm",
      "outputs": [
        {
          "internalType": "address",
          "name": "",
          "type": "address"
        }
      ],
      "stateMutability": "view",
      "type": "function"
    },
    {
      "inputs": [
        {
          "components": [
            {
              "internalType": "address",
              "name": "npm",
              "type": "address"
            },
            {
              "internalType": "uint32",
              "name": "eid",
              "type": "uint32"
            }
          ],
          "internalType": "struct IProtocolFacet.ProtocolStorage",
          "name": "args",
          "type": "tuple"
        }
      ],
      "name": "setProtocolParams",
      "outputs": [],
      "stateMutability": "nonpayable",
      "type": "function"
    },
    {
      "inputs": [
        {
          "internalType": "address",
          "name": "pair",
          "type": "address"
        },
        {
          "internalType": "uint256",
          "name": "amountIn",
          "type": "uint256"
        },
        {
          "internalType": "uint160",
          "name": "sqrtPriceLimitX96",
          "type": "uint160"
        },
        {
          "internalType": "bool",
          "name": "zeroForOne",
          "type": "bool"
        },
        {
          "internalType": "int24[]",
          "name": "tickRange",
          "type": "int24[]"
        }
      ],
      "name": "simulateSwap",
      "outputs": [],
      "stateMutability": "nonpayable",
      "type": "function"
    },
    {
      "inputs": [
        {
          "internalType": "address",
          "name": "pair",
          "type": "address"
        },
        {
          "internalType": "uint256",
          "name": "amountIn",
          "type": "uint256"
        },
        {
          "internalType": "uint160",
          "name": "sqrtPriceLimitX96",
          "type": "uint160"
        },
        {
          "internalType": "bool",
          "name": "zeroForOne",
          "type": "bool"
        }
      ],
      "name": "swap",
      "outputs": [],
      "stateMutability": "nonpayable",
      "type": "function"
    },
    {
      "inputs": [
        {
          "internalType": "int256",
          "name": "amount0Delta",
          "type": "int256"
        },
        {
          "internalType": "int256",
          "name": "amount1Delta",
          "type": "int256"
        },
        {
          "internalType": "bytes",
          "name": "_data",
          "type": "bytes"
        }
      ],
      "name": "uniswapV3SwapCallback",
      "outputs": [],
      "stateMutability": "nonpayable",
      "type": "function"
    }
  ],
  "transactionHash": "0x8d498b185ea1db7d88d33d1b86808a8fabe2bab21be1f278aef807a0f4b6c2eb",
  "args": [],
  "numDeployments": 1,
  "solcInputHash": "65c8655e80534f0dec8baf3108407f35",
  "bytecode": "0x6080604052348015600f57600080fd5b506141188061001f6000396000f3fe608060405234801561001057600080fd5b506004361061016c5760003560e01c806379bf8c2d116100cd578063d26265e011610081578063e115bc5c11610066578063e115bc5c146103dd578063e25d44d114610408578063fa461e331461041b57600080fd5b8063d26265e0146103a2578063d79357fb146103ca57600080fd5b8063a855840a116100b2578063a855840a14610369578063c1cd25811461037c578063ca4f28031461038f57600080fd5b806379bf8c2d146103385780637f1e9ef61461034b57600080fd5b80633eeb530e11610124578063512613871161010957806351261387146102e35780635730ba08146102f85780637968f1ca1461030b57600080fd5b80633eeb530e14610291578063416ecebf146102b157600080fd5b806313d21cdf1161015557806313d21cdf146101c7578063151ab1aa1461023d5780631587d2b51461027057600080fd5b8063068bcd8d1461017157806307f70777146101a1575b600080fd5b61018461017f3660046133a9565b61042e565b6040516001600160a01b0390911681526020015b60405180910390f35b6101b46101af3660046133da565b6105ea565b60405160029190910b8152602001610198565b6101da6101d53660046133da565b6106a2565b6040516101989190600060a0820190506001600160a01b0383511682526001600160a01b0360208401511660208301526001600160a01b036040840151166040830152606083015160020b6060830152608083015160020b608083015292915050565b61025061024b3660046133a9565b6108bb565b604080516001600160a01b03938416815292909116602083015201610198565b61028361027e366004613406565b610961565b604051908152602001610198565b6102a461029f3660046133da565b610be8565b60405161019891906134c6565b6000805160206140c383398151915254600160a01b900463ffffffff1660405163ffffffff9091168152602001610198565b6102f66102f13660046136d0565b610e07565b005b6101846103063660046133da565b610f6c565b61031e6103193660046133a9565b611024565b60408051600293840b81529190920b602082015201610198565b6102f661034636600461373f565b6110ca565b6000805160206140c3833981519152546001600160a01b0316610184565b6102f661037736600461383c565b61135a565b6101b461038a3660046133da565b6115a8565b61025061039d3660046133da565b611619565b6103b56103b03660046133a9565b6116ef565b60408051928352602083019190915201610198565b6103b56103d83660046133da565b6117ad565b6103f06103eb36600461387e565b611992565b6040516001600160801b039091168152602001610198565b6102f66104163660046138aa565b611ad4565b6102f66104293660046138fd565b611d89565b600080600061043c846108bb565b9150915060006104616000805160206140c3833981519152546001600160a01b031690565b6001600160a01b03166399fbab88866040518263ffffffff1660e01b815260040161048e91815260200190565b61018060405180830381865afa1580156104ac573d6000803e3d6000fd5b505050506040513d601f19601f820116820180604052508101906104d091906139c9565b5050505050505094505050505060006104fe6000805160206140c3833981519152546001600160a01b031690565b6001600160a01b031663c45a01556040518163ffffffff1660e01b8152600401602060405180830381865afa15801561053b573d6000803e3d6000fd5b505050506040513d601f19601f8201168201806040525081019061055f9190613aab565b604051630b4c774160e11b81526001600160a01b038681166004830152858116602483015262ffffff8516604483015291925090821690631698ee8290606401602060405180830381865afa1580156105bc573d6000803e3d6000fd5b505050506040513d601f19601f820116820180604052508101906105e09190613aab565b9695505050505050565b60003033146106385760405162461bcd60e51b815260206004820152601560248201527414995cdd1c9a58dd1959081d1bc8111a585b5bdb99605a1b60448201526064015b60405180910390fd5b816001600160a01b031663d0c93a7c6040518163ffffffff1660e01b8152600401602060405180830381865afa158015610676573d6000803e3d6000fd5b505050506040513d601f19601f8201168201806040525081019061069a9190613ac8565b90505b919050565b6040805160a0810182526000808252602082018190529181018290526060810182905260808101919091526000829050600080826001600160a01b0316633850c7bd6040518163ffffffff1660e01b815260040160e060405180830381865afa158015610713573d6000803e3d6000fd5b505050506040513d601f19601f820116820180604052508101906107379190613b08565b5050505050915091506000836001600160a01b031663d0c93a7c6040518163ffffffff1660e01b8152600401602060405180830381865afa158015610780573d6000803e3d6000fd5b505050506040513d601f19601f820116820180604052508101906107a49190613ac8565b90506040518060a00160405280856001600160a01b0316630dfe16816040518163ffffffff1660e01b8152600401602060405180830381865afa1580156107ef573d6000803e3d6000fd5b505050506040513d601f19601f820116820180604052508101906108139190613aab565b6001600160a01b03168152602001856001600160a01b031663d21220a76040518163ffffffff1660e01b8152600401602060405180830381865afa15801561085f573d6000803e3d6000fd5b505050506040513d601f19601f820116820180604052508101906108839190613aab565b6001600160a01b03168152602001846001600160a01b031681526020018360020b81526020018260020b815250945050505050919050565b6000806108dd6000805160206140c3833981519152546001600160a01b031690565b6001600160a01b03166399fbab88846040518263ffffffff1660e01b815260040161090a91815260200190565b61018060405180830381865afa158015610928573d6000803e3d6000fd5b505050506040513d601f19601f8201168201806040525081019061094c91906139c9565b50979d969c50959a5050505050505050505050565b60003033146109aa5760405162461bcd60e51b815260206004820152601560248201527414995cdd1c9a58dd1959081d1bc8111a585b5bdb99605a1b604482015260640161062f565b60008790506000604051806101600160405280836001600160a01b0316630dfe16816040518163ffffffff1660e01b8152600401602060405180830381865afa1580156109fb573d6000803e3d6000fd5b505050506040513d601f19601f82011682018060405250810190610a1f9190613aab565b6001600160a01b03168152602001836001600160a01b031663d21220a76040518163ffffffff1660e01b8152600401602060405180830381865afa158015610a6b573d6000803e3d6000fd5b505050506040513d601f19601f82011682018060405250810190610a8f9190613aab565b6001600160a01b03168152602001836001600160a01b031663ddca3f436040518163ffffffff1660e01b8152600401602060405180830381865afa158015610adb573d6000803e3d6000fd5b505050506040513d601f19601f82011682018060405250810190610aff9190613b97565b62ffffff1681526020018960020b81526020018860020b81526020018781526020018681526020016000815260200160008152602001856001600160a01b03168152602001428152509050610b696000805160206140c3833981519152546001600160a01b031690565b6001600160a01b03166388316456826040518263ffffffff1660e01b8152600401610b949190613bb4565b6080604051808303816000875af1158015610bb3573d6000803e3d6000fd5b505050506040513d601f19601f82011682018060405250810190610bd79190613c78565b50919b9a5050505050505050505050565b60606000610bf583611f89565b905060008167ffffffffffffffff811115610c1257610c12613677565b604051908082528060200260200182016040528015610c4b57816020015b610c386132f8565b815260200190600190039081610c305790505b5092506000610c6f6000805160206140c3833981519152546001600160a01b031690565b6040516370a0823160e01b81526001600160a01b03878116600483015291909116906370a0823190602401602060405180830381865afa158015610cb7573d6000803e3d6000fd5b505050506040513d601f19601f82011682018060405250810190610cdb9190613cb4565b905060005b81811015610dfe576000610d096000805160206140c3833981519152546001600160a01b031690565b604051632f745c5960e01b81526001600160a01b038981166004830152602482018590529190911690632f745c5990604401602060405180830381865afa158015610d58573d6000803e3d6000fd5b505050506040513d601f19601f82011682018060405250810190610d7c9190613cb4565b90506000610d89826120f2565b6001600160801b03161115610df557610da181612194565b868581518110610db357610db3613ccd565b60200260200101819052506001868581518110610dd257610dd2613ccd565b60209081029190910101519015156102209091015283610df181613cf9565b9450505b50600101610ce0565b50505050919050565b610e126000336124d6565b610e5e5760405162461bcd60e51b815260206004820152601360248201527f5265737472696374656420746f2041646d696e00000000000000000000000000604482015260640161062f565b80516001600160a01b0316610eb55760405162461bcd60e51b815260206004820152600c60248201527f6e706d20697320656d7074790000000000000000000000000000000000000000604482015260640161062f565b806020015163ffffffff16600003610f0f5760405162461bcd60e51b815260206004820152600c60248201527f65696420697320656d7074790000000000000000000000000000000000000000604482015260640161062f565b80516000805160206140c3833981519152805460209093015163ffffffff16600160a01b026001600160a01b039092167fffffffffffffffff00000000000000000000000000000000000000000000000090931692909217179055565b6000303314610fb55760405162461bcd60e51b815260206004820152601560248201527414995cdd1c9a58dd1959081d1bc8111a585b5bdb99605a1b604482015260640161062f565b816001600160a01b0316633850c7bd6040518163ffffffff1660e01b815260040160e060405180830381865afa158015610ff3573d6000803e3d6000fd5b505050506040513d601f19601f820116820180604052508101906110179190613b08565b5094979650505050505050565b6000806110466000805160206140c3833981519152546001600160a01b031690565b6001600160a01b03166399fbab88846040518263ffffffff1660e01b815260040161107391815260200190565b61018060405180830381865afa158015611091573d6000803e3d6000fd5b505050506040513d601f19601f820116820180604052508101906110b591906139c9565b50949d939c50929a5050505050505050505050565b3033146111115760405162461bcd60e51b815260206004820152601560248201527414995cdd1c9a58dd1959081d1bc8111a585b5bdb99605a1b604482015260640161062f565b60008061111d87611619565b9150915061112d87878787611ad4565b60408051600280825260608201835260009260208301908036833750506040517f51dcdc9a00000000000000000000000000000000000000000000000000000000815291925030916351dcdc9a915061118c908b908890600401613d12565b6040805180830381865afa1580156111a8573d6000803e3d6000fd5b505050506040513d601f19601f820116820180604052508101906111cc9190613d61565b826000815181106111df576111df613ccd565b60200260200101836001815181106111f9576111f9613ccd565b6020908102919091010191909152526040516370a0823160e01b81523060048201526001600160a01b038416906370a0823190602401602060405180830381865afa15801561124c573d6000803e3d6000fd5b505050506040513d601f19601f820116820180604052508101906112709190613cb4565b6040516370a0823160e01b81523060048201526001600160a01b038416906370a0823190602401602060405180830381865afa1580156112b4573d6000803e3d6000fd5b505050506040513d601f19601f820116820180604052508101906112d89190613cb4565b826000815181106112eb576112eb613ccd565b60200260200101518360018151811061130657611306613ccd565b60200260200101516040517fa0ad33dd00000000000000000000000000000000000000000000000000000000815260040161062f949392919093845260208401929092526040830152606082015260800190565b3033146113a15760405162461bcd60e51b815260206004820152601560248201527414995cdd1c9a58dd1959081d1bc8111a585b5bdb99605a1b604482015260640161062f565b60006040518060a001604052808581526020016113bd866120f2565b6001600160801b0316815260200160008152602001600081526020014281525090506000806113ec8685612516565b60408051838152602081018390529294509092507f3bb500040acf6744b9c1f9f77110724e120e1a451602598b17d9d1df202c5242910160405180910390a160208301516001600160801b031615611510576000805160206140c3833981519152546001600160a01b0316604080517f0c49ccbe0000000000000000000000000000000000000000000000000000000081528551600482015260208601516001600160801b0316602482015290850151604482015260608501516064820152608085015160848201526001600160a01b039190911690630c49ccbe9060a40160408051808303816000875af11580156114e9573d6000803e3d6000fd5b505050506040513d601f19601f8201168201806040525081019061150d9190613d61565b50505b61151a8686612516565b50506000805160206140c3833981519152546040517f42966c68000000000000000000000000000000000000000000000000000000008152600481018890526001600160a01b03909116906342966c6890602401600060405180830381600087803b15801561158857600080fd5b505af115801561159c573d6000803e3d6000fd5b50505050505050505050565b6000816001600160a01b0316633850c7bd6040518163ffffffff1660e01b815260040160e060405180830381865afa1580156115e8573d6000803e3d6000fd5b505050506040513d601f19601f8201168201806040525081019061160c9190613b08565b5093979650505050505050565b6000806000839050806001600160a01b0316630dfe16816040518163ffffffff1660e01b8152600401602060405180830381865afa15801561165f573d6000803e3d6000fd5b505050506040513d601f19601f820116820180604052508101906116839190613aab565b816001600160a01b031663d21220a76040518163ffffffff1660e01b8152600401602060405180830381865afa1580156116c1573d6000803e3d6000fd5b505050506040513d601f19601f820116820180604052508101906116e59190613aab565b9250925050915091565b60008060006116fd8461042e565b905060008061170b86611024565b915091506000836001600160a01b0316633850c7bd6040518163ffffffff1660e01b815260040160e060405180830381865afa15801561174f573d6000803e3d6000fd5b505050506040513d601f19601f820116820180604052508101906117739190613b08565b505050505050905061179f8161178885612628565b61179185612628565b61179a8b6120f2565b612a12565b909890975095505050505050565b6000803033146117f75760405162461bcd60e51b815260206004820152601560248201527414995cdd1c9a58dd1959081d1bc8111a585b5bdb99605a1b604482015260640161062f565b6000839050806001600160a01b0316630dfe16816040518163ffffffff1660e01b8152600401602060405180830381865afa15801561183a573d6000803e3d6000fd5b505050506040513d601f19601f8201168201806040525081019061185e9190613aab565b6001600160a01b031663313ce5676040518163ffffffff1660e01b8152600401602060405180830381865afa15801561189b573d6000803e3d6000fd5b505050506040513d601f19601f820116820180604052508101906118bf9190613d85565b816001600160a01b031663d21220a76040518163ffffffff1660e01b8152600401602060405180830381865afa1580156118fd573d6000803e3d6000fd5b505050506040513d601f19601f820116820180604052508101906119219190613aab565b6001600160a01b031663313ce5676040518163ffffffff1660e01b8152600401602060405180830381865afa15801561195e573d6000803e3d6000fd5b505050506040513d601f19601f820116820180604052508101906119829190613d85565b60ff918216945016915050915091565b60003033146119db5760405162461bcd60e51b815260206004820152601560248201527414995cdd1c9a58dd1959081d1bc8111a585b5bdb99605a1b604482015260640161062f565b6040805160c0810182528581526020810185815281830185815260006060808501828152608086018381524260a088019081526000805160206140c38339815191525489517f219f5d17000000000000000000000000000000000000000000000000000000008152895160048201529751602489015295516044880152915160648701525160848601525160a4850152945193946001600160a01b039092169363219f5d179360c480820194939183900301908290875af1158015611aa4573d6000803e3d6000fd5b505050506040513d601f19601f82011682018060405250810190611ac89190613da0565b50909695505050505050565b303314611b1b5760405162461bcd60e51b815260206004820152601560248201527414995cdd1c9a58dd1959081d1bc8111a585b5bdb99605a1b604482015260640161062f565b600084905060006040518060600160405280836001600160a01b0316630dfe16816040518163ffffffff1660e01b8152600401602060405180830381865afa158015611b6b573d6000803e3d6000fd5b505050506040513d601f19601f82011682018060405250810190611b8f9190613aab565b6001600160a01b03168152602001836001600160a01b031663d21220a76040518163ffffffff1660e01b8152600401602060405180830381865afa158015611bdb573d6000803e3d6000fd5b505050506040513d601f19601f82011682018060405250810190611bff9190613aab565b6001600160a01b03168152602001836001600160a01b031663ddca3f436040518163ffffffff1660e01b8152600401602060405180830381865afa158015611c4b573d6000803e3d6000fd5b505050506040513d601f19601f82011682018060405250810190611c6f9190613b97565b62ffffff168152509050816001600160a01b031663128acb08308588886001600160a01b0316600014611ca25788611cdb565b87611ccb57611cc6600173fffd8963efd1fc6a506488495d951d5263988d26613dd5565b611cdb565b611cdb6401000276a36001613df4565b6040805188516001600160a01b039081166020808401919091528a015116818301529088015162ffffff1660608201526080016040516020818303038152906040526040518663ffffffff1660e01b8152600401611d3d959493929190613e13565b60408051808303816000875af1158015611d5b573d6000803e3d6000fd5b505050506040513d601f19601f82011682018060405250810190611d7f9190613d61565b5050505050505050565b6000611d9782840184613e5d565b90506000611dba6000805160206140c3833981519152546001600160a01b031690565b6001600160a01b031663c45a01556040518163ffffffff1660e01b8152600401602060405180830381865afa158015611df7573d6000803e3d6000fd5b505050506040513d601f19601f82011682018060405250810190611e1b9190613aab565b9050611e3581836000015184602001518560400151612aae565b5060008060008813611e645783600001516001600160a01b031684602001516001600160a01b03161087611e83565b83602001516001600160a01b031684600001516001600160a01b031610885b915091508115611f0757835160405163a9059cbb60e01b8152336004820152602481018390526001600160a01b039091169063a9059cbb906044016020604051808303816000875af1158015611edd573d6000803e3d6000fd5b505050506040513d601f19601f82011682018060405250810190611f019190613ed1565b50611d7f565b602084015160405163a9059cbb60e01b8152336004820152602481018390526001600160a01b039091169063a9059cbb906044016020604051808303816000875af1158015611f5a573d6000803e3d6000fd5b505050506040513d601f19601f82011682018060405250810190611f7e9190613ed1565b505050505050505050565b600080611fab6000805160206140c3833981519152546001600160a01b031690565b6040516370a0823160e01b81526001600160a01b03858116600483015291909116906370a0823190602401602060405180830381865afa158015611ff3573d6000803e3d6000fd5b505050506040513d601f19601f820116820180604052508101906120179190613cb4565b905060005b818110156120eb5760006120456000805160206140c3833981519152546001600160a01b031690565b604051632f745c5960e01b81526001600160a01b038781166004830152602482018590529190911690632f745c5990604401602060405180830381865afa158015612094573d6000803e3d6000fd5b505050506040513d601f19601f820116820180604052508101906120b89190613cb4565b905060006120c5826120f2565b6001600160801b031611156120e257836120de81613cf9565b9450505b5060010161201c565b5050919050565b60006121136000805160206140c3833981519152546001600160a01b031690565b6001600160a01b03166399fbab88836040518263ffffffff1660e01b815260040161214091815260200190565b61018060405180830381865afa15801561215e573d6000803e3d6000fd5b505050506040513d601f19601f8201168201806040525081019061218291906139c9565b50929c9b505050505050505050505050565b61219c6132f8565b6121a46132f8565b60408051808201909152600981527f556e69737761705633000000000000000000000000000000000000000000000060208083019190915290825281018390526121ed836108bb565b6001600160a01b03908116608084015216606082015261220c83611024565b600290810b6101e08401520b6101c08201526122278361042e565b6001600160a01b0316604080830182905280517f3850c7bd00000000000000000000000000000000000000000000000000000000815290518291633850c7bd9160048083019260e09291908290030181865afa15801561228b573d6000803e3d6000fd5b505050506040513d601f19601f820116820180604052508101906122af9190613b08565b5050505060029190910b610200850152506122cb9050846116ef565b6101408401526101208301526122e084612af4565b61018084015261016083015260608201516080830151604080517f313ce56700000000000000000000000000000000000000000000000000000000815290516001600160a01b0384169163313ce5679160048083019260209291908290030181865afa158015612354573d6000803e3d6000fd5b505050506040513d601f19601f820116820180604052508101906123789190613d85565b60ff168460a0018181525050806001600160a01b031663313ce5676040518163ffffffff1660e01b8152600401602060405180830381865afa1580156123c2573d6000803e3d6000fd5b505050506040513d601f19601f820116820180604052508101906123e69190613d85565b60ff168460c0018181525050816001600160a01b03166395d89b416040518163ffffffff1660e01b8152600401600060405180830381865afa158015612430573d6000803e3d6000fd5b505050506040513d6000823e601f3d908101601f191682016040526124589190810190613eee565b8460e00181905250806001600160a01b03166395d89b416040518163ffffffff1660e01b8152600401600060405180830381865afa15801561249e573d6000803e3d6000fd5b505050506040513d6000823e601f3d908101601f191682016040526124c69190810190613eee565b6101008501525091949350505050565b60008281527f6891d55ec5f39745a8d2e578beced3b89c2702e96df8aac9e4f965508783ef2f6020526040812061250d9083612b29565b90505b92915050565b604080516080810182528381526001600160a01b03831660208201526001600160801b039181018290526060810191909152600090819061256c6000805160206140c3833981519152546001600160a01b031690565b604080517ffc6f78650000000000000000000000000000000000000000000000000000000081528351600482015260208401516001600160a01b039081166024830152918401516001600160801b039081166044830152606085015116606482015291169063fc6f78659060840160408051808303816000875af11580156125f8573d6000803e3d6000fd5b505050506040513d601f19601f8201168201806040525081019061261c9190613d61565b92509250509250929050565b60008060008360020b1261263f578260020b61264c565b8260020b61264c90613f7b565b905060008160011660000361267257700100000000000000000000000000000000612684565b6ffffcb933bd6fad37aa2d162d1a5940015b70ffffffffffffffffffffffffffffffffff16905060028216156126c35760806126be826ffff97272373d413259a46990580e213a613fb3565b901c90505b60048216156126ed5760806126e8826ffff2e50f5f656932ef12357cf3c7fdcc613fb3565b901c90505b6008821615612717576080612712826fffe5caca7e10e4e61c3624eaa0941cd0613fb3565b901c90505b601082161561274157608061273c826fffcb9843d60f6159c9db58835c926644613fb3565b901c90505b602082161561276b576080612766826fff973b41fa98c081472e6896dfb254c0613fb3565b901c90505b6040821615612795576080612790826fff2ea16466c96a3843ec78b326b52861613fb3565b901c90505b60808216156127bf5760806127ba826ffe5dee046a99a2a811c461f1969c3053613fb3565b901c90505b6101008216156127ea5760806127e5826ffcbe86c7900a88aedcffc83b479aa3a4613fb3565b901c90505b610200821615612815576080612810826ff987a7253ac413176f2b074cf7815e54613fb3565b901c90505b61040082161561284057608061283b826ff3392b0822b70005940c7a398e4b70f3613fb3565b901c90505b61080082161561286b576080612866826fe7159475a2c29b7443b29c7fa6e889d9613fb3565b901c90505b611000821615612896576080612891826fd097f3bdfd2022b8845ad8f792aa5825613fb3565b901c90505b6120008216156128c15760806128bc826fa9f746462d870fdf8a65dc1f90e061e5613fb3565b901c90505b6140008216156128ec5760806128e7826f70d869a156d2a1b890bb3df62baf32f7613fb3565b901c90505b618000821615612917576080612912826f31be135f97d08fd981231505542fcfa6613fb3565b901c90505b6201000082161561294357608061293e826f09aa508b5b7a84e1c677de54f3e99bc9613fb3565b901c90505b6202000082161561296e576080612969826e5d6af8dedb81196699c329225ee604613fb3565b901c90505b62040000821615612998576080612993826d2216e584f5fa1ea926041bedfe98613fb3565b901c90505b620800008216156129c05760806129bb826b048a170391f7dc42444e8fa2613fb3565b901c90505b60008460020b13156129db576129d881600019613fe0565b90505b6129ea64010000000082613ff4565b156129f65760016129f9565b60005b612a0a9060ff16602083901c614008565b949350505050565b600080836001600160a01b0316856001600160a01b03161115612a33579293925b846001600160a01b0316866001600160a01b031611612a5e57612a57858585612b4b565b9150612aa5565b836001600160a01b0316866001600160a01b03161015612a9757612a83868585612b4b565b9150612a90858785612bd1565b9050612aa5565b612aa2858585612bd1565b90505b94509492505050565b6000612aeb856040518060600160405280876001600160a01b03168152602001866001600160a01b031681526020018562ffffff16815250612c24565b95945050505050565b600080612b1f612b196000805160206140c3833981519152546001600160a01b031690565b84612d09565b9094909350915050565b6001600160a01b0381166000908152600183016020526040812054151561250d565b6000826001600160a01b0316846001600160a01b03161115612b6b579192915b6001600160a01b038416612bbd7bffffffffffffffffffffffffffffffff000000000000000000000000606085901b16612ba58787613dd5565b6001600160a01b0316866001600160a01b0316612e3d565b612bc79190613fe0565b90505b9392505050565b6000826001600160a01b0316846001600160a01b03161115612bf1579192915b612bc76001600160801b038316612c088686613dd5565b6001600160a01b03166c01000000000000000000000000612e3d565b805160208201516040808401519051630b4c774160e11b81526001600160a01b039384166004820152918316602483015262ffffff166044820152600091841690631698ee8290606401602060405180830381865afa158015612c8b573d6000803e3d6000fd5b505050506040513d601f19601f82011682018060405250810190612caf9190613aab565b9050336001600160a01b038216146125105760405162461bcd60e51b815260206004820152601660248201527f737761702076616c69646174696f6e206661696c656400000000000000000000604482015260640161062f565b6000806000806000806000806000806000808d6001600160a01b03166399fbab888e6040518263ffffffff1660e01b8152600401612d4991815260200190565b61018060405180830381865afa158015612d67573d6000803e3d6000fd5b505050506040513d601f19601f82011682018060405250810190612d8b91906139c9565b6001600160801b03169b506001600160801b03169b509b509b509b509b509b509b509b509b505050612e288e6040518061014001604052808d6001600160a01b031681526020018c6001600160a01b031681526020018b62ffffff1681526020018a60020b81526020018960020b8152602001886001600160801b0316815260200187815260200186815260200185815260200184815250612eeb565b9b509b50505050505050505050509250929050565b6000808060001985870985870292508281108382030391505080600003612e765760008411612e6b57600080fd5b508290049050612bca565b808411612e8257600080fd5b60008486880960026001871981018816978890046003810283188082028403028082028403028082028403028082028403028082028403029081029092039091026000889003889004909101858311909403939093029303949094049190911702949350505050565b60008082610100015191508261012001519050600080612ffd866001600160a01b031663c45a01556040518163ffffffff1660e01b8152600401602060405180830381865afa158015612f42573d6000803e3d6000fd5b505050506040513d601f19601f82011682018060405250810190612f669190613aab565b865160208801516040808a01519051630b4c774160e11b81526001600160a01b039384166004820152918316602483015262ffffff166044820152911690631698ee8290606401602060405180830381865afa158015612fca573d6000803e3d6000fd5b505050506040513d601f19601f82011682018060405250810190612fee9190613aab565b86606001518760800151613069565b91509150613037613012838760c00151900390565b8660a001516001600160801b0316700100000000000000000000000000000000612e3d565b6130419085614008565b9350613054613012828760e00151900390565b61305e9084614008565b925050509250929050565b6000806000856001600160a01b0316633850c7bd6040518163ffffffff1660e01b815260040160e060405180830381865afa1580156130ac573d6000803e3d6000fd5b505050506040513d601f19601f820116820180604052508101906130d09190613b08565b505060405163f30dba9360e01b815260028b900b60048201529395506000945084936001600160a01b038c16935063f30dba939250602401905061010060405180830381865afa158015613128573d6000803e3d6000fd5b505050506040513d601f19601f8201168201806040525081019061314c919061401b565b505060405163f30dba9360e01b815260028d900b600482015293975091955060009450849350506001600160a01b038c169163f30dba93915060240161010060405180830381865afa1580156131a6573d6000803e3d6000fd5b505050506040513d601f19601f820116820180604052508101906131ca919061401b565b505050509350935050508860020b8560020b12156131f157818403965080830395506132eb565b8760020b8560020b12156132e05760008a6001600160a01b031663f30583996040518163ffffffff1660e01b8152600401602060405180830381865afa15801561323f573d6000803e3d6000fd5b505050506040513d601f19601f820116820180604052508101906132639190613cb4565b905060008b6001600160a01b031663461413196040518163ffffffff1660e01b8152600401602060405180830381865afa1580156132a5573d6000803e3d6000fd5b505050506040513d601f19601f820116820180604052508101906132c99190613cb4565b9186900384900398505083900381900395506132eb565b838203965082810395505b5050505050935093915050565b604051806102400160405280606081526020016000815260200160006001600160a01b0316815260200160006001600160a01b0316815260200160006001600160a01b03168152602001600081526020016000815260200160608152602001606081526020016000815260200160008152602001600081526020016000815260200160008152602001600060020b8152602001600060020b8152602001600060020b81526020016000151581525090565b6000602082840312156133bb57600080fd5b5035919050565b6001600160a01b03811681146133d757600080fd5b50565b6000602082840312156133ec57600080fd5b8135612bca816133c2565b8060020b81146133d757600080fd5b60008060008060008060c0878903121561341f57600080fd5b863561342a816133c2565b9550602087013561343a816133f7565b9450604087013561344a816133f7565b9350606087013592506080870135915060a0870135613468816133c2565b809150509295509295509295565b60005b83811015613491578181015183820152602001613479565b50506000910152565b600081518084526134b2816020860160208601613476565b601f01601f19169290920160200192915050565b6000602082016020835280845180835260408501915060408160051b86010192506020860160005b8281101561366b57603f1987860301845281518051610240875261351661024088018261349a565b905060208201516020880152604082015161353c60408901826001600160a01b03169052565b50606082015161355760608901826001600160a01b03169052565b50608082015161357260808901826001600160a01b03169052565b5060a082015160a088015260c082015160c088015260e082015187820360e089015261359e828261349a565b9150506101008201518782036101008901526135ba828261349a565b9150506101208201516101208801526101408201516101408801526101608201516101608801526101808201516101808801526101a08201516101a08801526101c082015161360f6101c089018260020b9052565b506101e08201516136266101e089018260020b9052565b5061020082015161363d61020089018260020b9052565b50610220820151915061365561022088018315159052565b95505060209384019391909101906001016134ee565b50929695505050505050565b634e487b7160e01b600052604160045260246000fd5b604051601f8201601f1916810167ffffffffffffffff811182821017156136b6576136b6613677565b604052919050565b63ffffffff811681146133d757600080fd5b600060408284031280156136e357600080fd5b506040805190810167ffffffffffffffff8111828210171561370757613707613677565b6040528235613715816133c2565b81526020830135613725816136be565b60208201529392505050565b80151581146133d757600080fd5b600080600080600060a0868803121561375757600080fd5b8535613762816133c2565b9450602086013593506040860135613779816133c2565b9250606086013561378981613731565b9150608086013567ffffffffffffffff8111156137a557600080fd5b8601601f810188136137b657600080fd5b803567ffffffffffffffff8111156137d0576137d0613677565b8060051b6137e06020820161368d565b9182526020818401810192908101908b8411156137fc57600080fd5b6020850194505b8385101561382a5784359250613818836133f7565b82825260209485019490910190613803565b80955050505050509295509295909350565b60008060006060848603121561385157600080fd5b833592506020840135613863816133c2565b91506040840135613873816133c2565b809150509250925092565b60008060006060848603121561389357600080fd5b505081359360208301359350604090920135919050565b600080600080608085870312156138c057600080fd5b84356138cb816133c2565b93506020850135925060408501356138e2816133c2565b915060608501356138f281613731565b939692955090935050565b6000806000806060858703121561391357600080fd5b8435935060208501359250604085013567ffffffffffffffff81111561393857600080fd5b8501601f8101871361394957600080fd5b803567ffffffffffffffff81111561396057600080fd5b87602082840101111561397257600080fd5b949793965060200194505050565b805161069d816133c2565b62ffffff811681146133d757600080fd5b805161069d8161398b565b805161069d816133f7565b80516001600160801b038116811461069d57600080fd5b6000806000806000806000806000806000806101808d8f0312156139ec57600080fd5b8c516bffffffffffffffffffffffff81168114613a0857600080fd5b9b50613a1660208e01613980565b9a50613a2460408e01613980565b9950613a3260608e01613980565b9850613a4060808e0161399c565b9750613a4e60a08e016139a7565b9650613a5c60c08e016139a7565b9550613a6a60e08e016139b2565b6101008e01516101208f015191965094509250613a8a6101408e016139b2565b9150613a996101608e016139b2565b90509295989b509295989b509295989b565b600060208284031215613abd57600080fd5b8151612bca816133c2565b600060208284031215613ada57600080fd5b8151612bca816133f7565b805161ffff8116811461069d57600080fd5b805160ff8116811461069d57600080fd5b600080600080600080600060e0888a031215613b2357600080fd5b8751613b2e816133c2565b6020890151909750613b3f816133f7565b9550613b4d60408901613ae5565b9450613b5b60608901613ae5565b9350613b6960808901613ae5565b9250613b7760a08901613af7565b915060c0880151613b8781613731565b8091505092959891949750929550565b600060208284031215613ba957600080fd5b8151612bca8161398b565b81516001600160a01b0316815261016081016020830151613be060208401826001600160a01b03169052565b506040830151613bf7604084018262ffffff169052565b506060830151613c0c606084018260020b9052565b506080830151613c21608084018260020b9052565b5060a083015160a083015260c083015160c083015260e083015160e0830152610100830151610100830152610120830151613c686101208401826001600160a01b03169052565b5061014092830151919092015290565b60008060008060808587031215613c8e57600080fd5b84519350613c9e602086016139b2565b6040860151606090960151949790965092505050565b600060208284031215613cc657600080fd5b5051919050565b634e487b7160e01b600052603260045260246000fd5b634e487b7160e01b600052601160045260246000fd5b600060018201613d0b57613d0b613ce3565b5060010190565b6000604082016001600160a01b03851683526040602084015280845180835260608501915060208601925060005b81811015611ac857835160020b835260209384019390920191600101613d40565b60008060408385031215613d7457600080fd5b505080516020909101519092909150565b600060208284031215613d9757600080fd5b61250d82613af7565b600080600060608486031215613db557600080fd5b613dbe846139b2565b602085015160409095015190969495509392505050565b6001600160a01b03828116828216039081111561251057612510613ce3565b6001600160a01b03818116838216019081111561251057612510613ce3565b6001600160a01b038616815284151560208201528360408201526001600160a01b038316606082015260a060808201526000613e5260a083018461349a565b979650505050505050565b60006060828403128015613e7057600080fd5b506040516060810167ffffffffffffffff81118282101715613e9457613e94613677565b6040528235613ea2816133c2565b81526020830135613eb2816133c2565b60208201526040830135613ec58161398b565b60408201529392505050565b600060208284031215613ee357600080fd5b8151612bca81613731565b600060208284031215613f0057600080fd5b815167ffffffffffffffff811115613f1757600080fd5b8201601f81018413613f2857600080fd5b805167ffffffffffffffff811115613f4257613f42613677565b613f55601f8201601f191660200161368d565b818152856020838501011115613f6a57600080fd5b612aeb826020830160208601613476565b60007f80000000000000000000000000000000000000000000000000000000000000008203613fac57613fac613ce3565b5060000390565b808202811582820484141761251057612510613ce3565b634e487b7160e01b600052601260045260246000fd5b600082613fef57613fef613fca565b500490565b60008261400357614003613fca565b500690565b8082018082111561251057612510613ce3565b600080600080600080600080610100898b03121561403857600080fd5b614041896139b2565b9750602089015180600f0b811461405757600080fd5b60408a015160608b015160808c01519299509097509550600681900b811461407e57600080fd5b60a08a015190945061408f816133c2565b60c08a01519093506140a0816136be565b60e08a01519092506140b181613731565b80915050929598509295989093965056fe5aa0a09ffa2fb2b7edfb6aef2338d362e27937b889f2409c09ce062ef7e989cba264697066735822122069b7f0a2329d36ecf3f02cd0a6b446262fa827b69ee37ed90349cc5ee175e74f64736f6c634300081b0033",
  "devdoc": {
    "kind": "dev",
    "methods": {
      "getPoolDecimals(address)": {
        "details": "Retrieves the decimal places for both tokens in a pool.",
        "params": {
          "pair": "The address of the pool."
        },
        "returns": {
          "_0": "The decimal places for token0 and token1."
        }
      },
      "getPoolSqrtRatioX96(address)": {
        "details": "Retrieves the current square root price of a pool.",
        "params": {
          "pair": "The address of the pool."
        },
        "returns": {
          "sqrtRatioX96": "The current square root price in Q64.96 format."
        }
      },
      "getPoolTick(address)": {
        "details": "Retrieves the current tick of a pool.",
        "params": {
          "pair": "The address of the pool."
        },
        "returns": {
          "tick": "The current tick."
        }
      },
      "getPoolTickSpacing(address)": {
        "details": "Retrieves the tick spacing of a pool.",
        "params": {
          "pair": "The address of the pool."
        },
        "returns": {
          "_0": "The tick spacing."
        }
      },
      "getPoolTokens(address)": {
        "details": "Retrieves the addresses of both tokens in a pool.",
        "params": {
          "pair": "The address of the pool."
        },
        "returns": {
          "_0": "The addresses of token0 and token1."
        }
      },
      "setProtocolParams((address,uint32))": {
        "params": {
          "args": "The protocol parameters"
        }
      }
    },
    "version": 1
  },
  "userdoc": {
    "kind": "user",
    "methods": {
      "eid()": {
        "notice": "Gets the eid"
      },
      "npm()": {
        "notice": "Gets the npm address"
      },
      "setProtocolParams((address,uint32))": {
        "notice": "Sets the protocol parameters"
      }
    },
    "version": 1
  },
  "storageLayout": {
    "storage": [],
    "types": null
  }
}