{
  "address": "0x2A86C30c2688E9970E7a57dc4215F32697219491",
  "abi": [
    {
      "inputs": [
        {
          "internalType": "address[]",
          "name": "tokens",
          "type": "address[]"
        },
        {
          "internalType": "uint256[]",
          "name": "initialAmounts",
          "type": "uint256[]"
        },
        {
          "internalType": "uint256[]",
          "name": "putAmounts",
          "type": "uint256[]"
        },
        {
          "internalType": "uint256[]",
          "name": "returnedAmounts",
          "type": "uint256[]"
        }
      ],
      "name": "SimulationResult",
      "type": "error"
    },
    {
      "anonymous": false,
      "inputs": [
        {
          "indexed": false,
          "internalType": "address[]",
          "name": "tokens",
          "type": "address[]"
        },
        {
          "indexed": false,
          "internalType": "uint256[]",
          "name": "amounts",
          "type": "uint256[]"
        }
      ],
      "name": "InputTokens",
      "type": "event"
    },
    {
      "anonymous": false,
      "inputs": [
        {
          "indexed": false,
          "internalType": "address[]",
          "name": "tokens",
          "type": "address[]"
        },
        {
          "indexed": false,
          "internalType": "uint256[]",
          "name": "amounts",
          "type": "uint256[]"
        }
      ],
      "name": "OutputTokens",
      "type": "event"
    },
    {
      "anonymous": false,
      "inputs": [
        {
          "indexed": false,
          "internalType": "uint256",
          "name": "tokenId",
          "type": "uint256"
        }
      ],
      "name": "TokenId",
      "type": "event"
    },
    {
      "anonymous": false,
      "inputs": [
        {
          "indexed": false,
          "internalType": "address[]",
          "name": "tokens",
          "type": "address[]"
        },
        {
          "indexed": false,
          "internalType": "uint256[]",
          "name": "initialAmounts",
          "type": "uint256[]"
        },
        {
          "indexed": false,
          "internalType": "uint256[]",
          "name": "putAmounts",
          "type": "uint256[]"
        },
        {
          "indexed": false,
          "internalType": "uint256[]",
          "name": "returnedAmounts",
          "type": "uint256[]"
        }
      ],
      "name": "ZapResult",
      "type": "event"
    },
    {
      "inputs": [],
      "name": "inchRouter",
      "outputs": [
        {
          "internalType": "address",
          "name": "",
          "type": "address"
        }
      ],
      "stateMutability": "view",
      "type": "function"
    },
    {
      "inputs": [
        {
          "components": [
            {
              "internalType": "address",
              "name": "inchRouter",
              "type": "address"
            }
          ],
          "internalType": "struct IZapFacet.ZapStorage",
          "name": "args",
          "type": "tuple"
        }
      ],
      "name": "setZapParams",
      "outputs": [],
      "stateMutability": "nonpayable",
      "type": "function"
    },
    {
      "inputs": [
        {
          "components": [
            {
              "components": [
                {
                  "internalType": "address",
                  "name": "tokenAddress",
                  "type": "address"
                },
                {
                  "internalType": "uint256",
                  "name": "amountIn",
                  "type": "uint256"
                }
              ],
              "internalType": "struct IZapFacet.InputToken[]",
              "name": "inputs",
              "type": "tuple[]"
            },
            {
              "components": [
                {
                  "internalType": "address",
                  "name": "tokenAddress",
                  "type": "address"
                },
                {
                  "internalType": "uint256",
                  "name": "amountMin",
                  "type": "uint256"
                }
              ],
              "internalType": "struct IZapFacet.OutputToken[]",
              "name": "outputs",
              "type": "tuple[]"
            },
            {
              "internalType": "bytes",
              "name": "data",
              "type": "bytes"
            }
          ],
          "internalType": "struct IZapFacet.SwapData",
          "name": "swapData",
          "type": "tuple"
        },
        {
          "components": [
            {
              "internalType": "address",
              "name": "pool",
              "type": "address"
            },
            {
              "internalType": "int24[]",
              "name": "tickRange",
              "type": "int24[]"
            },
            {
              "internalType": "uint256[]",
              "name": "amountsOut",
              "type": "uint256[]"
            }
          ],
          "internalType": "struct IZapFacet.ZapInParams",
          "name": "paramsData",
          "type": "tuple"
        }
      ],
      "name": "zapIn",
      "outputs": [],
      "stateMutability": "nonpayable",
      "type": "function"
    },
    {
      "inputs": [
        {
          "internalType": "uint256",
          "name": "tokenId",
          "type": "uint256"
        }
      ],
      "name": "zapOut",
      "outputs": [],
      "stateMutability": "nonpayable",
      "type": "function"
    }
  ],
  "transactionHash": "0xfcc62c436eccde498ce705ce8221409ae0b4d24541c0da78166dd0f4751a586f",
  "args": [],
  "numDeployments": 1,
  "solcInputHash": "65c8655e80534f0dec8baf3108407f35",
  "bytecode": "0x6080604052348015600f57600080fd5b506121408061001f6000396000f3fe608060405234801561001057600080fd5b506004361061004c5760003560e01c80630ed9b1561461005157806313861257146100665780633936c8c414610079578063fe27824a146100b7575b600080fd5b61006461005f366004611a98565b6100ca565b005b610064610074366004611d96565b6101d6565b7fb441869ad00b07fcfd9d9848d2191e2d089e64bbdfcfc7e94d973ffe9193fa3154604080516001600160a01b039092168252519081900360200190f35b6100646100c5366004611e9f565b6101e8565b6100d56000336101f6565b6101265760405162461bcd60e51b815260206004820152601360248201527f5265737472696374656420746f2041646d696e0000000000000000000000000060448201526064015b60405180910390fd5b80516001600160a01b031661017d5760405162461bcd60e51b815260206004820152601360248201527f696e6368526f7574657220697320656d70747900000000000000000000000000604482015260640161011d565b517fb441869ad00b07fcfd9d9848d2191e2d089e64bbdfcfc7e94d973ffe9193fa3180547fffffffffffffffffffffffff0000000000000000000000000000000000000000166001600160a01b03909216919091179055565b6101e4828260016000610236565b5050565b6101f3813333610ddf565b50565b60008281527f6891d55ec5f39745a8d2e578beced3b89c2702e96df8aac9e4f965508783ef2f6020526040812061022d9083610e65565b90505b92915050565b6102408484610e87565b60005b84515181101561041b5760008560000151828151811061026557610265611eb8565b6020026020010151600001519050831561034057806001600160a01b03166323b872dd3330896000015186815181106102a0576102a0611eb8565b60209081029190910181015101516040517fffffffff0000000000000000000000000000000000000000000000000000000060e086901b1681526001600160a01b03938416600482015292909116602483015260448201526064016020604051808303816000875af115801561031a573d6000803e3d6000fd5b505050506040513d601f19601f8201168201806040525081019061033e9190611ece565b505b6001600160a01b03811663095ea7b37fb441869ad00b07fcfd9d9848d2191e2d089e64bbdfcfc7e94d973ffe9193fa3154885180516001600160a01b03909216918690811061039157610391611eb8565b6020026020010151602001516040518363ffffffff1660e01b81526004016103ce9291906001600160a01b03929092168252602082015260400190565b6020604051808303816000875af11580156103ed573d6000803e3d6000fd5b505050506040513d601f19601f820116820180604052508101906104119190611ece565b5050600101610243565b506104258461114a565b6040805160026060820181815260c083018452600093839290608084019080368337505050815260408051600280825260608201835260209384019391929091830190803683375050508152604080516002808252606082018352602093840193919290918301908036833750505090526040805160026080820181815260e08301845293945060009391928392919060a08401908036833750505081526040805160028082526060820183526020938401939192909183019080368337505050815260408051600280825260608201835260209384019391929091830190803683375050508152604080516002808252606082018352602093840193919290918301908036833701905050905285516040517fca4f28030000000000000000000000000000000000000000000000000000000081526001600160a01b039091166004820152909150309063ca4f2803906024016040805180830381865afa158015610595573d6000803e3d6000fd5b505050506040513d601f19601f820116820180604052508101906105b99190611ef7565b835180516000906105cc576105cc611eb8565b6020026020010184600001516001815181106105ea576105ea611eb8565b6001600160a01b039384166020918202929092010152911690528151815260005b600281101561086957825180518290811061062857610628611eb8565b60200260200101518360200151828151811061064657610646611eb8565b60200260200101906001600160a01b031690816001600160a01b031681525050848015610690575060008660400151828151811061068657610686611eb8565b6020026020010151115b1561077657826020015181815181106106ab576106ab611eb8565b60200260200101516001600160a01b03166323b872dd3330896040015185815181106106d9576106d9611eb8565b60209081029190910101516040517fffffffff0000000000000000000000000000000000000000000000000000000060e086901b1681526001600160a01b03938416600482015292909116602483015260448201526064016020604051808303816000875af1158015610750573d6000803e3d6000fd5b505050506040513d601f19601f820116820180604052508101906107749190611ece565b505b8260200151818151811061078c5761078c611eb8565b60209081029190910101516040516370a0823160e01b81523060048201526001600160a01b03909116906370a0823190602401602060405180830381865afa1580156107dc573d6000803e3d6000fd5b505050506040513d601f19601f820116820180604052508101906108009190611f31565b8360400151828151811061081657610816611eb8565b6020026020010181815250508260400151818151811061083857610838611eb8565b60200260200101518660400151828151811061085657610856611eb8565b602090810291909101015260010161060b565b5060408281015160208301528051600280825260608201909252600091816020016020820280368337505060408051600280825260608201835293945060009390925090602083019080368337019050509050841561095e57604051630693132f60e51b815260048101869052309063d26265e0906024016040805180830381865afa1580156108fd573d6000803e3d6000fd5b505050506040513d601f19601f820116820180604052508101906109219190611f4a565b8360008151811061093457610934611eb8565b602002602001018460018151811061094e5761094e611eb8565b6020908102919091010191909152525b61096987858761157f565b604051630693132f60e51b815260048101829052909550309063d26265e0906024016040805180830381865afa1580156109a7573d6000803e3d6000fd5b505050506040513d601f19601f820116820180604052508101906109cb9190611f4a565b826000815181106109de576109de611eb8565b60200260200101836001815181106109f8576109f8611eb8565b60209081029190910101919091525260005b6002811015610c4957828181518110610a2557610a25611eb8565b6020026020010151828281518110610a3f57610a3f611eb8565b60200260200101511115610aae57828181518110610a5f57610a5f611eb8565b6020026020010151828281518110610a7957610a79611eb8565b6020026020010151610a8b9190611f6e565b84604001518281518110610aa157610aa1611eb8565b6020026020010181815250505b84602001518181518110610ac457610ac4611eb8565b60209081029190910101516040516370a0823160e01b81523060048201526001600160a01b03909116906370a0823190602401602060405180830381865afa158015610b14573d6000803e3d6000fd5b505050506040513d601f19601f82011682018060405250810190610b389190611f31565b84606001518281518110610b4e57610b4e611eb8565b602002602001018181525050600084606001518281518110610b7257610b72611eb8565b60200260200101511115610c415784602001518181518110610b9657610b96611eb8565b60200260200101516001600160a01b031663a9059cbb3386606001518481518110610bc357610bc3611eb8565b60200260200101516040518363ffffffff1660e01b8152600401610bfc9291906001600160a01b03929092168252602082015260400190565b6020604051808303816000875af1158015610c1b573d6000803e3d6000fd5b505050506040513d601f19601f82011682018060405250810190610c3f9190611ece565b505b600101610a0a565b5060005b885151811015610d8757600089600001518281518110610c6f57610c6f611eb8565b6020908102919091010151516040516370a0823160e01b81523060048201529091506000906001600160a01b038316906370a0823190602401602060405180830381865afa158015610cc5573d6000803e3d6000fd5b505050506040513d601f19601f82011682018060405250810190610ce99190611f31565b90508015610d7d576040517fa9059cbb000000000000000000000000000000000000000000000000000000008152336004820152602481018290526001600160a01b0383169063a9059cbb906044016020604051808303816000875af1158015610d57573d6000803e3d6000fd5b505050506040513d601f19601f82011682018060405250810190610d7b9190611ece565b505b5050600101610c4d565b507f825fed7d042a89fa97aab6a6ac630edc9a6e30ab3028983403f4c49b165a81048360000151846020015185604001518660600151604051610dcd9493929190612006565b60405180910390a15050505050505050565b6040517fa855840a000000000000000000000000000000000000000000000000000000008152600481018490526001600160a01b03808416602483015282166044820152309063a855840a90606401600060405180830381600087803b158015610e4857600080fd5b505af1158015610e5c573d6000803e3d6000fd5b50505050505050565b6001600160a01b0381166000908152600183016020526040812054151561022d565b60005b825151811015610fc25760005b81811015610f48578351805182908110610eb357610eb3611eb8565b6020026020010151600001516001600160a01b031684600001518381518110610ede57610ede611eb8565b6020026020010151600001516001600160a01b031603610f405760405162461bcd60e51b815260206004820152601660248201527f4475706c696361746520696e70757420746f6b656e7300000000000000000000604482015260640161011d565b600101610e97565b50600083600001518281518110610f6157610f61611eb8565b60200260200101516020015111610fba5760405162461bcd60e51b815260206004820152601160248201527f496e70757420616d6f756e742069732030000000000000000000000000000000604482015260640161011d565b600101610e8a565b5080604001515160021461103e5760405162461bcd60e51b815260206004820152602860248201527f496e76616c6964206f7574707574206c656e6774682c206d757374206265206560448201527f786163746c792032000000000000000000000000000000000000000000000000606482015260840161011d565b8060200151516002146110b95760405162461bcd60e51b815260206004820152602c60248201527f496e76616c6964207469636b2072616e6765206c656e6774682c206d7573742060448201527f62652065786163746c7920320000000000000000000000000000000000000000606482015260840161011d565b80602001516001815181106110d0576110d0611eb8565b602002602001015160020b81602001516000815181106110f2576110f2611eb8565b602002602001015160020b126101e45760405162461bcd60e51b815260206004820152601260248201527f496e76616c6964207469636b2072616e67650000000000000000000000000000604482015260640161011d565b8051511561122b5760007fb441869ad00b07fcfd9d9848d2191e2d089e64bbdfcfc7e94d973ffe9193fa315460408084015190516001600160a01b03909216916000916111969161205e565b60006040518083038185875af1925050503d80600081146111d3576040519150601f19603f3d011682016040523d82523d6000602084013e6111d8565b606091505b50509050806112295760405162461bcd60e51b815260206004820152601360248201527f726f75746572207377617020696e76616c696400000000000000000000000000604482015260640161011d565b505b80515160009067ffffffffffffffff81111561124957611249611a13565b604051908082528060200260200182016040528015611272578160200160208202803683370190505b509050600082600001515167ffffffffffffffff81111561129557611295611a13565b6040519080825280602002602001820160405280156112be578160200160208202803683370190505b50905060005b83515181101561135d5783518051829081106112e2576112e2611eb8565b60200260200101516000015183828151811061130057611300611eb8565b6001600160a01b0390921660209283029190910190910152835180518290811061132c5761132c611eb8565b60200260200101516020015182828151811061134a5761134a611eb8565b60209081029190910101526001016112c4565b507f9aad82eab80e5230385f748130c9d61069cfefaffd6f4137cc0ad62c86ed252b828260405161138f92919061208d565b60405180910390a15050600081602001515167ffffffffffffffff8111156113b9576113b9611a13565b6040519080825280602002602001820160405280156113e2578160200160208202803683370190505b509050600082602001515167ffffffffffffffff81111561140557611405611a13565b60405190808252806020026020018201604052801561142e578160200160208202803683370190505b50905060005b836020015151811015611540578360200151818151811061145757611457611eb8565b60200260200101516000015183828151811061147557611475611eb8565b60200260200101906001600160a01b031690816001600160a01b0316815250508281815181106114a7576114a7611eb8565b60209081029190910101516040516370a0823160e01b81523060048201526001600160a01b03909116906370a0823190602401602060405180830381865afa1580156114f7573d6000803e3d6000fd5b505050506040513d601f19601f8201168201806040525081019061151b9190611f31565b82828151811061152d5761152d611eb8565b6020908102919091010152600101611434565b507fab6ed7963a309572d0d275f1fd5dbee4188c4c37c79dd797674ad5d7be6d4c24828260405161157292919061208d565b60405180910390a1505050565b6000826020015160008151811061159857611598611eb8565b60200260200101516001600160a01b031663095ea7b3306001600160a01b0316637f1e9ef66040518163ffffffff1660e01b8152600401602060405180830381865afa1580156115ec573d6000803e3d6000fd5b505050506040513d601f19601f8201168201806040525081019061161091906120bb565b856040015160008151811061162757611627611eb8565b60200260200101516040518363ffffffff1660e01b81526004016116609291906001600160a01b03929092168252602082015260400190565b6020604051808303816000875af115801561167f573d6000803e3d6000fd5b505050506040513d601f19601f820116820180604052508101906116a39190611ece565b5082602001516001815181106116bb576116bb611eb8565b60200260200101516001600160a01b031663095ea7b3306001600160a01b0316637f1e9ef66040518163ffffffff1660e01b8152600401602060405180830381865afa15801561170f573d6000803e3d6000fd5b505050506040513d601f19601f8201168201806040525081019061173391906120bb565b856040015160018151811061174a5761174a611eb8565b60200260200101516040518363ffffffff1660e01b81526004016117839291906001600160a01b03929092168252602082015260400190565b6020604051808303816000875af11580156117a2573d6000803e3d6000fd5b505050506040513d601f19601f820116820180604052508101906117c69190611ece565b508160000361194a57306001600160a01b0316631587d2b5856000015186602001516000815181106117fa576117fa611eb8565b6020026020010151876020015160018151811061181957611819611eb8565b6020026020010151876040015160008151811061183857611838611eb8565b6020026020010151886040015160018151811061185757611857611eb8565b60209081029190910101516040517fffffffff0000000000000000000000000000000000000000000000000000000060e088901b1681526001600160a01b039095166004860152600293840b60248601529190920b6044840152606483019190915260848201523360a482015260c4016020604051808303816000875af11580156118e6573d6000803e3d6000fd5b505050506040513d601f19601f8201168201806040525081019061190a9190611f31565b91507fa4e8e12e12124dbefe84fada6e584fcfaf4862f3b8284a8174f89be901ec4d7d8260405161193d91815260200190565b60405180910390a1611a0c565b306001600160a01b031663e115bc5c83856040015160008151811061197157611971611eb8565b6020026020010151866040015160018151811061199057611990611eb8565b60200260200101516040518463ffffffff1660e01b81526004016119c7939291909283526020830191909152604082015260600190565b6020604051808303816000875af11580156119e6573d6000803e3d6000fd5b505050506040513d601f19601f82011682018060405250810190611a0a91906120d8565b505b5092915050565b634e487b7160e01b600052604160045260246000fd5b6040516060810167ffffffffffffffff81118282101715611a4c57611a4c611a13565b60405290565b604051601f8201601f1916810167ffffffffffffffff81118282101715611a7b57611a7b611a13565b604052919050565b6001600160a01b03811681146101f357600080fd5b60006020828403128015611aab57600080fd5b506040516020810167ffffffffffffffff81118282101715611acf57611acf611a13565b6040528235611add81611a83565b81529392505050565b600067ffffffffffffffff821115611b0057611b00611a13565b5060051b60200190565b6000611b1d611b1884611ae6565b611a52565b838152905060208101600684901b830185811115611b3a57600080fd5b835b81811015611ba557600060408289031215611b55578081fd5b6040805190810167ffffffffffffffff81118282101715611b7857611b78611a13565b60405282359150611b8882611a83565b908152602082810135818301529084529290920191604001611b3c565b5050509392505050565b600082601f830112611bc057600080fd5b61022d83833560208501611b0a565b600082601f830112611be057600080fd5b813567ffffffffffffffff811115611bfa57611bfa611a13565b611c0d601f8201601f1916602001611a52565b818152846020838601011115611c2257600080fd5b816020850160208301376000918101602001919091529392505050565b600082601f830112611c5057600080fd5b8135611c5e611b1882611ae6565b8082825260208201915060208360051b860101925085831115611c8057600080fd5b602085015b83811015611c9d578035835260209283019201611c85565b5095945050505050565b600060608284031215611cb957600080fd5b611cc1611a29565b90508135611cce81611a83565b8152602082013567ffffffffffffffff811115611cea57600080fd5b8201601f81018413611cfb57600080fd5b8035611d09611b1882611ae6565b8082825260208201915060208360051b850101925086831115611d2b57600080fd5b6020840193505b82841015611d5c5783358060020b8114611d4b57600080fd5b825260209384019390910190611d32565b6020850152505050604082013567ffffffffffffffff811115611d7e57600080fd5b611d8a84828501611c3f565b60408301525092915050565b60008060408385031215611da957600080fd5b823567ffffffffffffffff811115611dc057600080fd5b830160608186031215611dd257600080fd5b611dda611a29565b813567ffffffffffffffff811115611df157600080fd5b8201601f81018713611e0257600080fd5b611e1187823560208401611b0a565b825250602082013567ffffffffffffffff811115611e2e57600080fd5b611e3a87828501611baf565b602083015250604082013567ffffffffffffffff811115611e5a57600080fd5b611e6687828501611bcf565b604083015250925050602083013567ffffffffffffffff811115611e8957600080fd5b611e9585828601611ca7565b9150509250929050565b600060208284031215611eb157600080fd5b5035919050565b634e487b7160e01b600052603260045260246000fd5b600060208284031215611ee057600080fd5b81518015158114611ef057600080fd5b9392505050565b60008060408385031215611f0a57600080fd5b8251611f1581611a83565b6020840151909250611f2681611a83565b809150509250929050565b600060208284031215611f4357600080fd5b5051919050565b60008060408385031215611f5d57600080fd5b505080516020909101519092909150565b8181038181111561023057634e487b7160e01b600052601160045260246000fd5b600081518084526020840193506020830160005b82811015611fca5781516001600160a01b0316865260209586019590910190600101611fa3565b5093949350505050565b600081518084526020840193506020830160005b82811015611fca578151865260209586019590910190600101611fe8565b6080815260006120196080830187611f8f565b828103602084015261202b8187611fd4565b9050828103604084015261203f8186611fd4565b905082810360608401526120538185611fd4565b979650505050505050565b6000825160005b8181101561207f5760208186018101518583015201612065565b506000920191825250919050565b6040815260006120a06040830185611f8f565b82810360208401526120b28185611fd4565b95945050505050565b6000602082840312156120cd57600080fd5b8151611ef081611a83565b6000602082840312156120ea57600080fd5b81516fffffffffffffffffffffffffffffffff81168114611ef057600080fdfea264697066735822122045a296eec5e71158e8e3adfb0dee20347ccbc930cf54819771ab591e99b7d41464736f6c634300081b0033",
  "devdoc": {
    "errors": {
      "SimulationResult(address[],uint256[],uint256[],uint256[])": [
        {
          "params": {
            "initialAmounts": "Amounts of tokens after swap",
            "putAmounts": "Amounts of tokens put into the pool",
            "returnedAmounts": "Amounts of tokens returned to the user",
            "tokens": "Array of pool token addresses"
          }
        }
      ]
    },
    "events": {
      "InputTokens(address[],uint256[])": {
        "params": {
          "amounts": "Array of input token amounts",
          "tokens": "Array of input token addresses"
        }
      },
      "OutputTokens(address[],uint256[])": {
        "params": {
          "amounts": "Array of output token amounts",
          "tokens": "Array of output token addresses"
        }
      },
      "TokenId(uint256)": {
        "params": {
          "tokenId": "The ID of the token"
        }
      },
      "ZapResult(address[],uint256[],uint256[],uint256[])": {
        "params": {
          "initialAmounts": "Amounts of tokens after swap",
          "putAmounts": "Amounts of tokens put into the pool",
          "returnedAmounts": "Amounts of tokens returned to the user",
          "tokens": "Array of pool token addresses"
        }
      }
    },
    "kind": "dev",
    "methods": {
      "zapIn(((address,uint256)[],(address,uint256)[],bytes),(address,int24[],uint256[]))": {
        "params": {
          "paramsData": "The parameters for the zap",
          "swapData": "The swap data for the zap"
        }
      },
      "zapOut(uint256)": {
        "params": {
          "tokenId": "The ID of the token to zap out of"
        }
      }
    },
    "version": 1
  },
  "userdoc": {
    "errors": {
      "SimulationResult(address[],uint256[],uint256[],uint256[])": [
        {
          "notice": "Error thrown with the simulation result of a zap operation"
        }
      ]
    },
    "events": {
      "InputTokens(address[],uint256[])": {
        "notice": "Emitted after swap"
      },
      "OutputTokens(address[],uint256[])": {
        "notice": "Emitted after swap"
      },
      "TokenId(uint256)": {
        "notice": "Emitted when a new token ID is generated"
      },
      "ZapResult(address[],uint256[],uint256[],uint256[])": {
        "notice": "Emitted with the result of a zap operation"
      }
    },
    "kind": "user",
    "methods": {
      "zapIn(((address,uint256)[],(address,uint256)[],bytes),(address,int24[],uint256[]))": {
        "notice": "Zaps in to a liquidity position"
      },
      "zapOut(uint256)": {
        "notice": "Zaps out of a liquidity position"
      }
    },
    "version": 1
  },
  "storageLayout": {
    "storage": [],
    "types": null
  }
}