{
  "address": "0xdFDF0b74664513CACD57cf9d8fe4361ae7E1F4d7",
  "abi": [
    {
      "inputs": [
        {
          "internalType": "address",
          "name": "pair",
          "type": "address"
        }
      ],
      "name": "closestTicksForCurrentTick",
      "outputs": [
        {
          "internalType": "int24",
          "name": "left",
          "type": "int24"
        },
        {
          "internalType": "int24",
          "name": "right",
          "type": "int24"
        }
      ],
      "stateMutability": "view",
      "type": "function"
    },
    {
      "inputs": [
        {
          "internalType": "uint256",
          "name": "a",
          "type": "uint256"
        },
        {
          "internalType": "uint256",
          "name": "b",
          "type": "uint256"
        },
        {
          "internalType": "uint256",
          "name": "c",
          "type": "uint256"
        },
        {
          "internalType": "uint256",
          "name": "d",
          "type": "uint256"
        }
      ],
      "name": "compareRatios",
      "outputs": [
        {
          "internalType": "bool",
          "name": "",
          "type": "bool"
        }
      ],
      "stateMutability": "pure",
      "type": "function"
    },
    {
      "inputs": [
        {
          "internalType": "address",
          "name": "pair",
          "type": "address"
        }
      ],
      "name": "getCurrentPoolTick",
      "outputs": [
        {
          "internalType": "int24",
          "name": "",
          "type": "int24"
        }
      ],
      "stateMutability": "view",
      "type": "function"
    },
    {
      "inputs": [
        {
          "internalType": "address",
          "name": "pair",
          "type": "address"
        }
      ],
      "name": "getCurrentPrice",
      "outputs": [
        {
          "internalType": "uint256",
          "name": "",
          "type": "uint256"
        }
      ],
      "stateMutability": "view",
      "type": "function"
    },
    {
      "inputs": [
        {
          "internalType": "address",
          "name": "pair",
          "type": "address"
        }
      ],
      "name": "getTickSpacing",
      "outputs": [
        {
          "internalType": "int24",
          "name": "",
          "type": "int24"
        }
      ],
      "stateMutability": "view",
      "type": "function"
    },
    {
      "inputs": [
        {
          "internalType": "address",
          "name": "pair",
          "type": "address"
        },
        {
          "internalType": "uint256[]",
          "name": "prices",
          "type": "uint256[]"
        }
      ],
      "name": "priceToClosestTick",
      "outputs": [
        {
          "internalType": "int24[]",
          "name": "",
          "type": "int24[]"
        }
      ],
      "stateMutability": "view",
      "type": "function"
    },
    {
      "inputs": [
        {
          "internalType": "address",
          "name": "pair",
          "type": "address"
        },
        {
          "internalType": "int24",
          "name": "tick",
          "type": "int24"
        }
      ],
      "name": "tickToPrice",
      "outputs": [
        {
          "internalType": "uint256",
          "name": "",
          "type": "uint256"
        }
      ],
      "stateMutability": "view",
      "type": "function"
    }
  ],
  "transactionHash": "0xe7f7cb46de0d3e053569a335047ca870dacb9816f700ce1caecc7b2eee825711",
  "args": [],
  "numDeployments": 1,
  "solcInputHash": "80d3285dd7101ed4fd05562fe485646f",
  "bytecode": "0x6080604052348015600f57600080fd5b506115ae8061001f6000396000f3fe608060405234801561001057600080fd5b506004361061007d5760003560e01c806341b34df31161005b57806341b34df3146100fa578063595db1c11461011d5780636cc8b2b61461013057806384cc315b1461015157600080fd5b80630d5fdc4a1461008257806311dc4c61146100ad578063355ac45a146100da575b600080fd5b6100956100903660046110a4565b610164565b60405160029190910b81526020015b60405180910390f35b6100c06100bb3660046110a4565b6101d6565b60408051600293840b81529190920b6020820152016100a4565b6100ed6100e83660046110d7565b610342565b6040516100a491906111b9565b61010d6101083660046111ff565b61056f565b60405190151581526020016100a4565b61009561012b3660046110a4565b61058f565b61014361013e366004611240565b6105be565b6040519081526020016100a4565b61014361015f3660046110a4565b610668565b60405163c1cd258160e01b81526001600160a01b0382166004820152600090309063c1cd2581906024015b602060405180830381865afa1580156101ac573d6000803e3d6000fd5b505050506040513d601f19601f820116820180604052508101906101d09190611279565b92915050565b60405163c1cd258160e01b81526001600160a01b038216600482015260009081908190309063c1cd258190602401602060405180830381865afa158015610221573d6000803e3d6000fd5b505050506040513d601f19601f820116820180604052508101906102459190611279565b6040516307f7077760e01b81526001600160a01b038616600482015290915060009030906307f7077790602401602060405180830381865afa15801561028f573d6000803e3d6000fd5b505050506040513d601f19601f820116820180604052508101906102b39190611279565b905060006102c182846112ac565b60020b12610304576102d381836112ac565b6102dd90836112e4565b93506102e981836112ac565b6102f38284611309565b6102fd91906112e4565b925061033b565b61030e81836112ac565b61031882846112e4565b61032291906112e4565b935061032e81836112ac565b61033890836112e4565b92505b5050915091565b60405163d79357fb60e01b81526001600160a01b0383166004820152606090600090309063d79357fb906024016040805180830381865afa15801561038b573d6000803e3d6000fd5b505050506040513d601f19601f820116820180604052508101906103af919061132e565b50905060006103bf601283611352565b6103ca90600a61144c565b6040516307f7077760e01b81526001600160a01b038716600482015290915060009030906307f7077790602401602060405180830381865afa158015610414573d6000803e3d6000fd5b505050506040513d601f19601f820116820180604052508101906104389190611279565b90506000855167ffffffffffffffff811115610456576104566110c1565b60405190808252806020026020018201604052801561047f578160200160208202803683370190505b50905060005b86518110156105645760006104b38883815181106104a5576104a5611458565b6020026020010151866107a6565b905060006104c0826107ce565b905060006104ce86836112ac565b60020b12610515576104e085826112ac565b6104ea90826112e4565b8484815181106104fc576104fc611458565b602002602001019060020b908160020b8152505061055a565b61051f85826112ac565b61052986836112e4565b61053391906112e4565b84848151811061054557610545611458565b602002602001019060020b908160020b815250505b5050600101610485565b509695505050505050565b600061057b838561146e565b610585838761146e565b1195945050505050565b6040516307f7077760e01b81526001600160a01b038216600482015260009030906307f707779060240161018f565b60405163d79357fb60e01b81526001600160a01b03831660048201526000908190309063d79357fb906024016040805180830381865afa158015610606573d6000803e3d6000fd5b505050506040513d601f19601f8201168201806040525081019061062a919061132e565b509050600061063a601283611352565b61064590600a61144c565b9050600061065285610b58565b905061065e8183610f3a565b9695505050505050565b60405163d79357fb60e01b81526001600160a01b03821660048201526000908190309063d79357fb906024016040805180830381865afa1580156106b0573d6000803e3d6000fd5b505050506040513d601f19601f820116820180604052508101906106d4919061132e565b506040517f5730ba080000000000000000000000000000000000000000000000000000000081526001600160a01b03851660048201529091506000903090635730ba0890602401602060405180830381865afa158015610738573d6000803e3d6000fd5b505050506040513d601f19601f8201168201806040525081019061075c9190611485565b905061079e61076c601284611352565b61077790600a61144c565b61078a906001600160a01b03841661146e565b826001600160a01b0316600160c01b610f59565b949350505050565b60006107c76107c26107bd85600160c01b86610f59565b611006565b611076565b9392505050565b60006401000276a36001600160a01b0383161080159061080a575073fffd8963efd1fc6a506488495d951d5263988d266001600160a01b038316105b610874576040517f08c379a000000000000000000000000000000000000000000000000000000000815260206004820152600160248201527f5200000000000000000000000000000000000000000000000000000000000000604482015260640160405180910390fd5b77ffffffffffffffffffffffffffffffffffffffff00000000602083901b166fffffffffffffffffffffffffffffffff811160071b81811c67ffffffffffffffff811160061b90811c63ffffffff811160051b90811c61ffff811160041b90811c60ff8111600390811b91821c600f811160021b90811c918211600190811b92831c979088119617909417909217179091171717608081106109255761091b607f826114a2565b83901c9150610936565b61093081607f6114a2565b83901b91505b600060406109456080846114b5565b901b9050828302607f1c92508260801c80603f1b8217915083811c935050828302607f1c92508260801c80603e1b8217915083811c935050828302607f1c92508260801c80603d1b8217915083811c935050828302607f1c92508260801c80603c1b8217915083811c935050828302607f1c92508260801c80603b1b8217915083811c935050828302607f1c92508260801c80603a1b8217915083811c935050828302607f1c92508260801c8060391b8217915083811c935050828302607f1c92508260801c8060381b8217915083811c935050828302607f1c92508260801c8060371b8217915083811c935050828302607f1c92508260801c8060361b8217915083811c935050828302607f1c92508260801c8060351b8217915083811c935050828302607f1c92508260801c8060341b8217915083811c935050828302607f1c92508260801c8060331b8217915083811c935050828302607f1c92508260801c8060321b8217915050600081693627a301d71055774c85610ac891906114dc565b905060006080610ae86f028f6481ab7f045a5af012a19d003aaa846114b5565b901d905060006080610b0a846fdb2df09e81959a81455e260799a0632f61150c565b901d90508060020b8260020b14610b4957886001600160a01b0316610b2e82610b58565b6001600160a01b03161115610b435781610b4b565b80610b4b565b815b9998505050505050505050565b60008060008360020b12610b6f578260020b610b7c565b8260020b610b7c90611534565b9050600081600116600003610ba257700100000000000000000000000000000000610bb4565b6ffffcb933bd6fad37aa2d162d1a5940015b70ffffffffffffffffffffffffffffffffff1690506002821615610bf3576080610bee826ffff97272373d413259a46990580e213a61146e565b901c90505b6004821615610c1d576080610c18826ffff2e50f5f656932ef12357cf3c7fdcc61146e565b901c90505b6008821615610c47576080610c42826fffe5caca7e10e4e61c3624eaa0941cd061146e565b901c90505b6010821615610c71576080610c6c826fffcb9843d60f6159c9db58835c92664461146e565b901c90505b6020821615610c9b576080610c96826fff973b41fa98c081472e6896dfb254c061146e565b901c90505b6040821615610cc5576080610cc0826fff2ea16466c96a3843ec78b326b5286161146e565b901c90505b6080821615610cef576080610cea826ffe5dee046a99a2a811c461f1969c305361146e565b901c90505b610100821615610d1a576080610d15826ffcbe86c7900a88aedcffc83b479aa3a461146e565b901c90505b610200821615610d45576080610d40826ff987a7253ac413176f2b074cf7815e5461146e565b901c90505b610400821615610d70576080610d6b826ff3392b0822b70005940c7a398e4b70f361146e565b901c90505b610800821615610d9b576080610d96826fe7159475a2c29b7443b29c7fa6e889d961146e565b901c90505b611000821615610dc6576080610dc1826fd097f3bdfd2022b8845ad8f792aa582561146e565b901c90505b612000821615610df1576080610dec826fa9f746462d870fdf8a65dc1f90e061e561146e565b901c90505b614000821615610e1c576080610e17826f70d869a156d2a1b890bb3df62baf32f761146e565b901c90505b618000821615610e47576080610e42826f31be135f97d08fd981231505542fcfa661146e565b901c90505b62010000821615610e73576080610e6e826f09aa508b5b7a84e1c677de54f3e99bc961146e565b901c90505b62020000821615610e9e576080610e99826e5d6af8dedb81196699c329225ee60461146e565b901c90505b62040000821615610ec8576080610ec3826d2216e584f5fa1ea926041bedfe9861146e565b901c90505b62080000821615610ef0576080610eeb826b048a170391f7dc42444e8fa261146e565b901c90505b60008460020b1315610f0b57610f0881600019611550565b90505b610f1a64010000000082611564565b15610f26576001610f29565b60005b61079e9060ff16602083901c611352565b60006107c76001600160a01b038416610f53848261146e565b600160c01b5b6000808060001985870985870292508281108382030391505080600003610f925760008411610f8757600080fd5b5082900490506107c7565b808411610f9e57600080fd5b600084868809600260036001881981018916988990049182028318808302840302808302840302808302840302808302840302808302840302918202909203026000889003889004909101858311909403939093029303949094049190911702949350505050565b600060038211156110675750806000611020600283611550565b61102b906001611352565b90505b81811015611061579050806002816110468186611550565b6110509190611352565b61105a9190611550565b905061102e565b50919050565b8115611071575060015b919050565b806001600160a01b038116811461107157600080fd5b6001600160a01b03811681146110a157600080fd5b50565b6000602082840312156110b657600080fd5b81356107c78161108c565b634e487b7160e01b600052604160045260246000fd5b600080604083850312156110ea57600080fd5b82356110f58161108c565b9150602083013567ffffffffffffffff81111561111157600080fd5b8301601f8101851361112257600080fd5b803567ffffffffffffffff81111561113c5761113c6110c1565b8060051b604051601f19603f830116810181811067ffffffffffffffff82111715611169576111696110c1565b60405291825260208184018101929081018884111561118757600080fd5b6020850194505b838510156111aa5784358082526020958601959093500161118e565b50809450505050509250929050565b602080825282518282018190526000918401906040840190835b818110156111f457835160020b8352602093840193909201916001016111d3565b509095945050505050565b6000806000806080858703121561121557600080fd5b5050823594602084013594506040840135936060013592509050565b8060020b81146110a157600080fd5b6000806040838503121561125357600080fd5b823561125e8161108c565b9150602083013561126e81611231565b809150509250929050565b60006020828403121561128b57600080fd5b81516107c781611231565b634e487b7160e01b600052601260045260246000fd5b60008260020b806112bf576112bf611296565b808360020b0791505092915050565b634e487b7160e01b600052601160045260246000fd5b600282810b9082900b03627fffff198112627fffff821317156101d0576101d06112ce565b600281810b9083900b01627fffff8113627fffff19821217156101d0576101d06112ce565b6000806040838503121561134157600080fd5b505080516020909101519092909150565b808201808211156101d0576101d06112ce565b6001815b60018411156113a057808504811115611384576113846112ce565b600184161561139257908102905b60019390931c928002611369565b935093915050565b6000826113b7575060016101d0565b816113c4575060006101d0565b81600181146113da57600281146113e457611400565b60019150506101d0565b60ff8411156113f5576113f56112ce565b50506001821b6101d0565b5060208310610133831016604e8410600b8410161715611423575081810a6101d0565b6114306000198484611365565b8060001904821115611444576114446112ce565b029392505050565b60006107c783836113a8565b634e487b7160e01b600052603260045260246000fd5b80820281158282048414176101d0576101d06112ce565b60006020828403121561149757600080fd5b81516107c78161108c565b818103818111156101d0576101d06112ce565b81810360008312801583831316838312821617156114d5576114d56112ce565b5092915050565b80820260008212600160ff1b841416156114f8576114f86112ce565b81810583148215176101d0576101d06112ce565b808201828112600083128015821682158216171561152c5761152c6112ce565b505092915050565b6000600160ff1b8203611549576115496112ce565b5060000390565b60008261155f5761155f611296565b500490565b60008261157357611573611296565b50069056fea2646970667358221220129507ffdf95591cbae61ee1507862d00d7b8368167d1cd911a702b668f0e72a64736f6c634300081b0033",
  "devdoc": {
    "kind": "dev",
    "methods": {
      "closestTicksForCurrentTick(address)": {
        "params": {
          "pair": "The address of the liquidity pool"
        },
        "returns": {
          "left": "The closest tick to the left of the current tick",
          "right": "The closest tick to the right of the current tick"
        }
      },
      "compareRatios(uint256,uint256,uint256,uint256)": {
        "params": {
          "a": "Numerator of the first ratio",
          "b": "Denominator of the first ratio",
          "c": "Numerator of the second ratio",
          "d": "Denominator of the second ratio"
        },
        "returns": {
          "_0": "True if a/b > c/d, false otherwise"
        }
      },
      "getCurrentPoolTick(address)": {
        "params": {
          "pair": "The address of the liquidity pool"
        },
        "returns": {
          "_0": "The current tick of the pool as an int24"
        }
      },
      "getCurrentPrice(address)": {
        "params": {
          "pair": "The address of the liquidity pool"
        },
        "returns": {
          "_0": "The current price as a uint256"
        }
      },
      "getTickSpacing(address)": {
        "params": {
          "pair": "The address of the liquidity pool"
        },
        "returns": {
          "_0": "The tick spacing as an int24"
        }
      },
      "priceToClosestTick(address,uint256[])": {
        "params": {
          "pair": "The address of the liquidity pool",
          "prices": "An array of prices to convert"
        },
        "returns": {
          "_0": "An array of the closest ticks corresponding to the given prices"
        }
      },
      "tickToPrice(address,int24)": {
        "params": {
          "pair": "The address of the liquidity pool",
          "tick": "The tick to convert"
        },
        "returns": {
          "_0": "The price corresponding to the given tick as a uint256"
        }
      }
    },
    "version": 1
  },
  "userdoc": {
    "kind": "user",
    "methods": {
      "closestTicksForCurrentTick(address)": {
        "notice": "Get the closest ticks (such as left <= current tick < right) to the current tick of a liquidity pool"
      },
      "compareRatios(uint256,uint256,uint256,uint256)": {
        "notice": "Compare two ratios"
      },
      "getCurrentPoolTick(address)": {
        "notice": "Get the current tick of a liquidity pool"
      },
      "getCurrentPrice(address)": {
        "notice": "Get the current price of a liquidity pool"
      },
      "getTickSpacing(address)": {
        "notice": "Get the tick spacing for a given liquidity pool"
      },
      "priceToClosestTick(address,uint256[])": {
        "notice": "Convert prices to their closest ticks"
      },
      "tickToPrice(address,int24)": {
        "notice": "Convert a tick to its corresponding price"
      }
    },
    "version": 1
  },
  "storageLayout": {
    "storage": [],
    "types": null
  }
}