{
  "address": "0x5Ba4A8Bc376EBe75af280C0a898196A07892fa76",
  "abi": [
    {
      "inputs": [
        {
          "internalType": "address[]",
          "name": "tokens",
          "type": "address[]"
        },
        {
          "internalType": "uint256[]",
          "name": "initialAmounts",
          "type": "uint256[]"
        },
        {
          "internalType": "uint256[]",
          "name": "putAmounts",
          "type": "uint256[]"
        },
        {
          "internalType": "uint256[]",
          "name": "returnedAmounts",
          "type": "uint256[]"
        },
        {
          "internalType": "uint256",
          "name": "amountToSwap",
          "type": "uint256"
        },
        {
          "internalType": "bool",
          "name": "swapSide",
          "type": "bool"
        }
      ],
      "name": "SimulationResult",
      "type": "error"
    },
    {
      "anonymous": false,
      "inputs": [
        {
          "indexed": false,
          "internalType": "address[]",
          "name": "tokens",
          "type": "address[]"
        },
        {
          "indexed": false,
          "internalType": "uint256[]",
          "name": "amounts",
          "type": "uint256[]"
        }
      ],
      "name": "InputTokens",
      "type": "event"
    },
    {
      "anonymous": false,
      "inputs": [
        {
          "indexed": false,
          "internalType": "address[]",
          "name": "tokens",
          "type": "address[]"
        },
        {
          "indexed": false,
          "internalType": "uint256[]",
          "name": "amounts",
          "type": "uint256[]"
        }
      ],
      "name": "OutputTokens",
      "type": "event"
    },
    {
      "anonymous": false,
      "inputs": [
        {
          "indexed": false,
          "internalType": "uint256",
          "name": "tokenId",
          "type": "uint256"
        }
      ],
      "name": "TokenId",
      "type": "event"
    },
    {
      "anonymous": false,
      "inputs": [
        {
          "indexed": false,
          "internalType": "address[]",
          "name": "tokens",
          "type": "address[]"
        },
        {
          "indexed": false,
          "internalType": "uint256[]",
          "name": "initialAmounts",
          "type": "uint256[]"
        },
        {
          "indexed": false,
          "internalType": "uint256[]",
          "name": "putAmounts",
          "type": "uint256[]"
        },
        {
          "indexed": false,
          "internalType": "uint256[]",
          "name": "returnedAmounts",
          "type": "uint256[]"
        }
      ],
      "name": "ZapResult",
      "type": "event"
    },
    {
      "inputs": [],
      "name": "inchRouter",
      "outputs": [
        {
          "internalType": "address",
          "name": "",
          "type": "address"
        }
      ],
      "stateMutability": "view",
      "type": "function"
    },
    {
      "inputs": [],
      "name": "remainingLiquidityThreshold",
      "outputs": [
        {
          "internalType": "uint256",
          "name": "",
          "type": "uint256"
        }
      ],
      "stateMutability": "view",
      "type": "function"
    },
    {
      "inputs": [
        {
          "components": [
            {
              "internalType": "address",
              "name": "inchRouter",
              "type": "address"
            },
            {
              "internalType": "uint256",
              "name": "binSearchIterations",
              "type": "uint256"
            },
            {
              "internalType": "uint256",
              "name": "remainingLiquidityThreshold",
              "type": "uint256"
            }
          ],
          "internalType": "struct IZapFacet.ZapStorage",
          "name": "args",
          "type": "tuple"
        }
      ],
      "name": "setZapParams",
      "outputs": [],
      "stateMutability": "nonpayable",
      "type": "function"
    },
    {
      "inputs": [
        {
          "components": [
            {
              "components": [
                {
                  "internalType": "address",
                  "name": "tokenAddress",
                  "type": "address"
                },
                {
                  "internalType": "uint256",
                  "name": "amountIn",
                  "type": "uint256"
                }
              ],
              "internalType": "struct IZapFacet.InputToken[]",
              "name": "inputs",
              "type": "tuple[]"
            },
            {
              "components": [
                {
                  "internalType": "address",
                  "name": "tokenAddress",
                  "type": "address"
                },
                {
                  "internalType": "uint256",
                  "name": "amountMin",
                  "type": "uint256"
                }
              ],
              "internalType": "struct IZapFacet.OutputToken[]",
              "name": "outputs",
              "type": "tuple[]"
            },
            {
              "internalType": "bytes[]",
              "name": "data",
              "type": "bytes[]"
            }
          ],
          "internalType": "struct IZapFacet.SwapData",
          "name": "swapData",
          "type": "tuple"
        },
        {
          "components": [
            {
              "internalType": "address",
              "name": "pool",
              "type": "address"
            },
            {
              "internalType": "int24[]",
              "name": "tickRange",
              "type": "int24[]"
            },
            {
              "internalType": "uint256[]",
              "name": "amountsOut",
              "type": "uint256[]"
            },
            {
              "internalType": "bool",
              "name": "isSimulation",
              "type": "bool"
            },
            {
              "internalType": "bool",
              "name": "adjustSwapSide",
              "type": "bool"
            },
            {
              "internalType": "uint256",
              "name": "adjustSwapAmount",
              "type": "uint256"
            }
          ],
          "internalType": "struct IZapFacet.ZapInParams",
          "name": "paramsData",
          "type": "tuple"
        }
      ],
      "name": "zapIn",
      "outputs": [],
      "stateMutability": "nonpayable",
      "type": "function"
    },
    {
      "inputs": [
        {
          "internalType": "uint256",
          "name": "tokenId",
          "type": "uint256"
        }
      ],
      "name": "zapOut",
      "outputs": [],
      "stateMutability": "nonpayable",
      "type": "function"
    }
  ],
  "transactionHash": "0x9509dd65b7fa240dc6bd53036968707b1f7658d06d4a8f24c1b404d29e4ed8fa",
  "args": [],
  "numDeployments": 5,
  "solcInputHash": "7c7757e98c9be84dc1162a9433578ee2",
  "bytecode": "0x6080604052348015600f57600080fd5b50612fd48061001f6000396000f3fe608060405234801561001057600080fd5b50600436106100675760003560e01c80635d76d687116100505780635d76d687146100db5780639c9774e9146100f0578063fe27824a1461010357600080fd5b80631b86e5f01461006c5780633936c8c4146100a1575b600080fd5b7fb441869ad00b07fcfd9d9848d2191e2d089e64bbdfcfc7e94d973ffe9193fa33546040519081526020015b60405180910390f35b7fb441869ad00b07fcfd9d9848d2191e2d089e64bbdfcfc7e94d973ffe9193fa31546040516001600160a01b039091168152602001610098565b6100ee6100e9366004612a93565b610116565b005b6100ee6100fe366004612b9c565b610128565b6100ee610111366004612be2565b6102d6565b6101248282600160006102e4565b5050565b610133600033610ef5565b6101845760405162461bcd60e51b815260206004820152601360248201527f5265737472696374656420746f2041646d696e0000000000000000000000000060448201526064015b60405180910390fd5b80516001600160a01b03166101db5760405162461bcd60e51b815260206004820152601360248201527f696e6368526f7574657220697320656d70747900000000000000000000000000604482015260640161017b565b806020015160000361022f5760405162461bcd60e51b815260206004820152601c60248201527f62696e536561726368497465726174696f6e7320697320656d70747900000000604482015260640161017b565b80517fb441869ad00b07fcfd9d9848d2191e2d089e64bbdfcfc7e94d973ffe9193fa3180547fffffffffffffffffffffffff0000000000000000000000000000000000000000166001600160a01b0390921691909117905560208101517fb441869ad00b07fcfd9d9848d2191e2d089e64bbdfcfc7e94d973ffe9193fa3255604001517fb441869ad00b07fcfd9d9848d2191e2d089e64bbdfcfc7e94d973ffe9193fa3355565b6102e1813333610f35565b50565b6102ee8484610fbb565b60005b8451518110156104c95760008560000151828151811061031357610313612bfb565b602002602001015160000151905083156103ee57806001600160a01b03166323b872dd33308960000151868151811061034e5761034e612bfb565b60209081029190910181015101516040517fffffffff0000000000000000000000000000000000000000000000000000000060e086901b1681526001600160a01b03938416600482015292909116602483015260448201526064016020604051808303816000875af11580156103c8573d6000803e3d6000fd5b505050506040513d601f19601f820116820180604052508101906103ec9190612c11565b505b6001600160a01b03811663095ea7b37fb441869ad00b07fcfd9d9848d2191e2d089e64bbdfcfc7e94d973ffe9193fa3154885180516001600160a01b03909216918690811061043f5761043f612bfb565b6020026020010151602001516040518363ffffffff1660e01b815260040161047c9291906001600160a01b03929092168252602082015260400190565b6020604051808303816000875af115801561049b573d6000803e3d6000fd5b505050506040513d601f19601f820116820180604052508101906104bf9190612c11565b50506001016102f1565b506104d38461127e565b6040805160026060820181815260c083018452600093839290608084019080368337505050815260408051600280825260608201835260209384019391929091830190803683375050508152604080516002808252606082018352602093840193919290918301908036833750505090526040805160026080820181815260e08301845293945060009391928392919060a08401908036833750505081526040805160028082526060820183526020938401939192909183019080368337505050815260408051600280825260608201835260209384019391929091830190803683375050508152604080516002808252606082018352602093840193919290918301908036833701905050905285516040517fca4f28030000000000000000000000000000000000000000000000000000000081526001600160a01b039091166004820152909150309063ca4f2803906024016040805180830381865afa158015610643573d6000803e3d6000fd5b505050506040513d601f19601f820116820180604052508101906106679190612c35565b8351805160009061067a5761067a612bfb565b60200260200101846000015160018151811061069857610698612bfb565b6001600160a01b039384166020918202929092010152911690528151815260005b60028110156109175782518051829081106106d6576106d6612bfb565b6020026020010151836020015182815181106106f4576106f4612bfb565b60200260200101906001600160a01b031690816001600160a01b03168152505084801561073e575060008660400151828151811061073457610734612bfb565b6020026020010151115b15610824578260200151818151811061075957610759612bfb565b60200260200101516001600160a01b03166323b872dd33308960400151858151811061078757610787612bfb565b60209081029190910101516040517fffffffff0000000000000000000000000000000000000000000000000000000060e086901b1681526001600160a01b03938416600482015292909116602483015260448201526064016020604051808303816000875af11580156107fe573d6000803e3d6000fd5b505050506040513d601f19601f820116820180604052508101906108229190612c11565b505b8260200151818151811061083a5761083a612bfb565b60209081029190910101516040516370a0823160e01b81523060048201526001600160a01b03909116906370a0823190602401602060405180830381865afa15801561088a573d6000803e3d6000fd5b505050506040513d601f19601f820116820180604052508101906108ae9190612c6f565b836040015182815181106108c4576108c4612bfb565b602002602001018181525050826040015181815181106108e6576108e6612bfb565b60200260200101518660400151828151811061090457610904612bfb565b60209081029190910101526001016106b9565b50604082810151602083015280516002808252606082019092526000918160200160208202803683375050604080516002808252606082018352939450600093909250906020830190803683370190505090508415610a0c57604051630693132f60e51b815260048101869052309063d26265e0906024016040805180830381865afa1580156109ab573d6000803e3d6000fd5b505050506040513d601f19601f820116820180604052508101906109cf9190612c88565b836000815181106109e2576109e2612bfb565b60200260200101846001815181106109fc576109fc612bfb565b6020908102919091010191909152525b610a178785876116dc565b9450610a24878587611b70565b604051630693132f60e51b815260048101869052309063d26265e0906024016040805180830381865afa158015610a5f573d6000803e3d6000fd5b505050506040513d601f19601f82011682018060405250810190610a839190612c88565b82600081518110610a9657610a96612bfb565b6020026020010183600181518110610ab057610ab0612bfb565b60209081029190910101919091525260005b6002811015610d0157828181518110610add57610add612bfb565b6020026020010151828281518110610af757610af7612bfb565b60200260200101511115610b6657828181518110610b1757610b17612bfb565b6020026020010151828281518110610b3157610b31612bfb565b6020026020010151610b439190612cc2565b84604001518281518110610b5957610b59612bfb565b6020026020010181815250505b84602001518181518110610b7c57610b7c612bfb565b60209081029190910101516040516370a0823160e01b81523060048201526001600160a01b03909116906370a0823190602401602060405180830381865afa158015610bcc573d6000803e3d6000fd5b505050506040513d601f19601f82011682018060405250810190610bf09190612c6f565b84606001518281518110610c0657610c06612bfb565b602002602001018181525050600084606001518281518110610c2a57610c2a612bfb565b60200260200101511115610cf95784602001518181518110610c4e57610c4e612bfb565b60200260200101516001600160a01b031663a9059cbb3386606001518481518110610c7b57610c7b612bfb565b60200260200101516040518363ffffffff1660e01b8152600401610cb49291906001600160a01b03929092168252602082015260400190565b6020604051808303816000875af1158015610cd3573d6000803e3d6000fd5b505050506040513d601f19601f82011682018060405250810190610cf79190612c11565b505b600101610ac2565b5060005b885151811015610e3f57600089600001518281518110610d2757610d27612bfb565b6020908102919091010151516040516370a0823160e01b81523060048201529091506000906001600160a01b038316906370a0823190602401602060405180830381865afa158015610d7d573d6000803e3d6000fd5b505050506040513d601f19601f82011682018060405250810190610da19190612c6f565b90508015610e35576040517fa9059cbb000000000000000000000000000000000000000000000000000000008152336004820152602481018290526001600160a01b0383169063a9059cbb906044016020604051808303816000875af1158015610e0f573d6000803e3d6000fd5b505050506040513d601f19601f82011682018060405250810190610e339190612c11565b505b5050600101610d05565b508660600151610e9b577f825fed7d042a89fa97aab6a6ac630edc9a6e30ab3028983403f4c49b165a81048360000151846020015185604001518660600151604051610e8e9493929190612d4c565b60405180910390a1610eeb565b82516020840151604080860151606087015160a08c015160808d015193517f6a594af100000000000000000000000000000000000000000000000000000000815261017b96959490600401612da4565b5050505050505050565b60008281527f6891d55ec5f39745a8d2e578beced3b89c2702e96df8aac9e4f965508783ef2f60205260408120610f2c9083612099565b90505b92915050565b6040517fa855840a000000000000000000000000000000000000000000000000000000008152600481018490526001600160a01b03808416602483015282166044820152309063a855840a90606401600060405180830381600087803b158015610f9e57600080fd5b505af1158015610fb2573d6000803e3d6000fd5b50505050505050565b60005b8251518110156110f65760005b8181101561107c578351805182908110610fe757610fe7612bfb565b6020026020010151600001516001600160a01b03168460000151838151811061101257611012612bfb565b6020026020010151600001516001600160a01b0316036110745760405162461bcd60e51b815260206004820152601660248201527f4475706c696361746520696e70757420746f6b656e7300000000000000000000604482015260640161017b565b600101610fcb565b5060008360000151828151811061109557611095612bfb565b602002602001015160200151116110ee5760405162461bcd60e51b815260206004820152601160248201527f496e70757420616d6f756e742069732030000000000000000000000000000000604482015260640161017b565b600101610fbe565b508060400151516002146111725760405162461bcd60e51b815260206004820152602860248201527f496e76616c6964206f7574707574206c656e6774682c206d757374206265206560448201527f786163746c792032000000000000000000000000000000000000000000000000606482015260840161017b565b8060200151516002146111ed5760405162461bcd60e51b815260206004820152602c60248201527f496e76616c6964207469636b2072616e6765206c656e6774682c206d7573742060448201527f62652065786163746c7920320000000000000000000000000000000000000000606482015260840161017b565b806020015160018151811061120457611204612bfb565b602002602001015160020b816020015160008151811061122657611226612bfb565b602002602001015160020b126101245760405162461bcd60e51b815260206004820152601260248201527f496e76616c6964207469636b2072616e67650000000000000000000000000000604482015260640161017b565b60005b816040015151811015611387577fb441869ad00b07fcfd9d9848d2191e2d089e64bbdfcfc7e94d973ffe9193fa3154604083015180516000926001600160a01b0316918391859081106112d6576112d6612bfb565b60200260200101516040516112eb9190612e0c565b60006040518083038185875af1925050503d8060008114611328576040519150601f19603f3d011682016040523d82523d6000602084013e61132d565b606091505b505090508061137e5760405162461bcd60e51b815260206004820152601360248201527f726f75746572207377617020696e76616c696400000000000000000000000000604482015260640161017b565b50600101611281565b5080515160009067ffffffffffffffff8111156113a6576113a661266c565b6040519080825280602002602001820160405280156113cf578160200160208202803683370190505b509050600082600001515167ffffffffffffffff8111156113f2576113f261266c565b60405190808252806020026020018201604052801561141b578160200160208202803683370190505b50905060005b8351518110156114ba57835180518290811061143f5761143f612bfb565b60200260200101516000015183828151811061145d5761145d612bfb565b6001600160a01b0390921660209283029190910190910152835180518290811061148957611489612bfb565b6020026020010151602001518282815181106114a7576114a7612bfb565b6020908102919091010152600101611421565b507f9aad82eab80e5230385f748130c9d61069cfefaffd6f4137cc0ad62c86ed252b82826040516114ec929190612e3b565b60405180910390a15050600081602001515167ffffffffffffffff8111156115165761151661266c565b60405190808252806020026020018201604052801561153f578160200160208202803683370190505b509050600082602001515167ffffffffffffffff8111156115625761156261266c565b60405190808252806020026020018201604052801561158b578160200160208202803683370190505b50905060005b83602001515181101561169d57836020015181815181106115b4576115b4612bfb565b6020026020010151600001518382815181106115d2576115d2612bfb565b60200260200101906001600160a01b031690816001600160a01b03168152505082818151811061160457611604612bfb565b60209081029190910101516040516370a0823160e01b81523060048201526001600160a01b03909116906370a0823190602401602060405180830381865afa158015611654573d6000803e3d6000fd5b505050506040513d601f19601f820116820180604052508101906116789190612c6f565b82828151811061168a5761168a612bfb565b6020908102919091010152600101611591565b507fab6ed7963a309572d0d275f1fd5dbee4188c4c37c79dd797674ad5d7be6d4c2482826040516116cf929190612e3b565b60405180910390a1505050565b600082602001516000815181106116f5576116f5612bfb565b60200260200101516001600160a01b031663095ea7b3306001600160a01b0316637f1e9ef66040518163ffffffff1660e01b8152600401602060405180830381865afa158015611749573d6000803e3d6000fd5b505050506040513d601f19601f8201168201806040525081019061176d9190612e69565b856040015160008151811061178457611784612bfb565b60200260200101516040518363ffffffff1660e01b81526004016117bd9291906001600160a01b03929092168252602082015260400190565b6020604051808303816000875af11580156117dc573d6000803e3d6000fd5b505050506040513d601f19601f820116820180604052508101906118009190612c11565b50826020015160018151811061181857611818612bfb565b60200260200101516001600160a01b031663095ea7b3306001600160a01b0316637f1e9ef66040518163ffffffff1660e01b8152600401602060405180830381865afa15801561186c573d6000803e3d6000fd5b505050506040513d601f19601f820116820180604052508101906118909190612e69565b85604001516001815181106118a7576118a7612bfb565b60200260200101516040518363ffffffff1660e01b81526004016118e09291906001600160a01b03929092168252602082015260400190565b6020604051808303816000875af11580156118ff573d6000803e3d6000fd5b505050506040513d601f19601f820116820180604052508101906119239190612c11565b5081600003611aa757306001600160a01b0316631587d2b58560000151866020015160008151811061195757611957612bfb565b6020026020010151876020015160018151811061197657611976612bfb565b6020026020010151876040015160008151811061199557611995612bfb565b602002602001015188604001516001815181106119b4576119b4612bfb565b60209081029190910101516040517fffffffff0000000000000000000000000000000000000000000000000000000060e088901b1681526001600160a01b039095166004860152600293840b60248601529190920b6044840152606483019190915260848201523360a482015260c4016020604051808303816000875af1158015611a43573d6000803e3d6000fd5b505050506040513d601f19601f82011682018060405250810190611a679190612c6f565b91507fa4e8e12e12124dbefe84fada6e584fcfaf4862f3b8284a8174f89be901ec4d7d82604051611a9a91815260200190565b60405180910390a1611b69565b306001600160a01b031663e115bc5c838560400151600081518110611ace57611ace612bfb565b60200260200101518660400151600181518110611aed57611aed612bfb565b60200260200101516040518463ffffffff1660e01b8152600401611b24939291909283526020830191909152604082015260600190565b6020604051808303816000875af1158015611b43573d6000803e3d6000fd5b505050506040513d601f19601f82011682018060405250810190611b679190612e86565b505b5092915050565b826060015115611b9157611b8483836120bb565b1515608085015260a08401525b60a083015115611c3157825160a084015160808501516040517fe25d44d10000000000000000000000000000000000000000000000000000000081526001600160a01b03909316600484015260248301919091526000604483015215156064820152309063e25d44d190608401600060405180830381600087803b158015611c1857600080fd5b505af1158015611c2c573d6000803e3d6000fd5b505050505b8160200151600081518110611c4857611c48612bfb565b60209081029190910101516040516370a0823160e01b81523060048201526001600160a01b03909116906370a0823190602401602060405180830381865afa158015611c98573d6000803e3d6000fd5b505050506040513d601f19601f82011682018060405250810190611cbc9190612c6f565b8360400151600081518110611cd357611cd3612bfb565b6020026020010181815250508160200151600181518110611cf657611cf6612bfb565b60209081029190910101516040516370a0823160e01b81523060048201526001600160a01b03909116906370a0823190602401602060405180830381865afa158015611d46573d6000803e3d6000fd5b505050506040513d601f19601f82011682018060405250810190611d6a9190612c6f565b8360400151600181518110611d8157611d81612bfb565b6020026020010181815250508160200151600081518110611da457611da4612bfb565b60200260200101516001600160a01b031663095ea7b3306001600160a01b0316637f1e9ef66040518163ffffffff1660e01b8152600401602060405180830381865afa158015611df8573d6000803e3d6000fd5b505050506040513d601f19601f82011682018060405250810190611e1c9190612e69565b8560400151600081518110611e3357611e33612bfb565b60200260200101516040518363ffffffff1660e01b8152600401611e6c9291906001600160a01b03929092168252602082015260400190565b6020604051808303816000875af1158015611e8b573d6000803e3d6000fd5b505050506040513d601f19601f82011682018060405250810190611eaf9190612c11565b508160200151600181518110611ec757611ec7612bfb565b60200260200101516001600160a01b031663095ea7b3306001600160a01b0316637f1e9ef66040518163ffffffff1660e01b8152600401602060405180830381865afa158015611f1b573d6000803e3d6000fd5b505050506040513d601f19601f82011682018060405250810190611f3f9190612e69565b8560400151600181518110611f5657611f56612bfb565b60200260200101516040518363ffffffff1660e01b8152600401611f8f9291906001600160a01b03929092168252602082015260400190565b6020604051808303816000875af1158015611fae573d6000803e3d6000fd5b505050506040513d601f19601f82011682018060405250810190611fd29190612c11565b50306001600160a01b031663e115bc5c828560400151600081518110611ffa57611ffa612bfb565b6020026020010151866040015160018151811061201957612019612bfb565b60200260200101516040518463ffffffff1660e01b8152600401612050939291909283526020830191909152604082015260600190565b6020604051808303816000875af115801561206f573d6000803e3d6000fd5b505050506040513d601f19601f820116820180604052508101906120939190612e86565b50505050565b6001600160a01b03811660009081526001830160205260408120541515610f2c565b60008082602001516001815181106120d5576120d5612bfb565b60209081029190910101516040516370a0823160e01b81523060048201526001600160a01b03909116906370a0823190602401602060405180830381865afa158015612125573d6000803e3d6000fd5b505050506040513d601f19601f820116820180604052508101906121499190612c6f565b836020015160008151811061216057612160612bfb565b60209081029190910101516040516370a0823160e01b81523060048201526001600160a01b03909116906370a0823190602401602060405180830381865afa1580156121b0573d6000803e3d6000fd5b505050506040513d601f19601f820116820180604052508101906121d49190612c6f565b1190506121fb60405180606001604052806000815260200160008152602001600081525090565b83602001518261220c57600161220f565b60005b60ff168151811061222257612222612bfb565b60209081029190910101516040516370a0823160e01b81523060048201526001600160a01b03909116906370a0823190602401602060405180830381865afa158015612272573d6000803e3d6000fd5b505050506040513d601f19601f820116820180604052508101906122969190612c6f565b602082015260005b7fb441869ad00b07fcfd9d9848d2191e2d089e64bbdfcfc7e94d973ffe9193fa325481101561265e57602082015182516002916122da91612eb8565b6122e49190612ecb565b60408084018290528751602089015191517f79bf8c2d00000000000000000000000000000000000000000000000000000000815230936379bf8c2d9361233293926000918a91600401612eed565b600060405180830381600087803b15801561234c57600080fd5b505af192505050801561235d575060015b612656573d80801561238b576040519150601f19603f3d011682016040523d82523d6000602084013e612390565b606091505b5060408051600480825260a08201909252828201916000919060208201608080368337019050509050818060200190518101906123cd9190612f68565b846000815181106123e0576123e0612bfb565b60200260200101856001815181106123fa576123fa612bfb565b602002602001018660028151811061241457612414612bfb565b602002602001018760038151811061242e5761242e612bfb565b6020908102919091010193909352929091529190525260008661254157306001600160a01b03166341b34df38360018151811061246d5761246d612bfb565b60200260200101518460008151811061248857612488612bfb565b6020026020010151856003815181106124a3576124a3612bfb565b6020026020010151866002815181106124be576124be612bfb565b60200260200101516040518563ffffffff1660e01b81526004016124fb949392919093845260208401929092526040830152606082015260800190565b602060405180830381865afa158015612518573d6000803e3d6000fd5b505050506040513d601f19601f8201168201806040525081019061253c9190612c11565b612632565b306001600160a01b03166341b34df38360008151811061256357612563612bfb565b60200260200101518460018151811061257e5761257e612bfb565b60200260200101518560028151811061259957612599612bfb565b6020026020010151866003815181106125b4576125b4612bfb565b60200260200101516040518563ffffffff1660e01b81526004016125f1949392919093845260208401929092526040830152606082015260800190565b602060405180830381865afa15801561260e573d6000803e3d6000fd5b505050506040513d601f19601f820116820180604052508101906126329190612c11565b905080156126465760408601518652612651565b604086015160208701525b505050505b60010161229e565b506040015194909350915050565b634e487b7160e01b600052604160045260246000fd5b60405160c0810167ffffffffffffffff811182821017156126a5576126a561266c565b60405290565b6040516060810167ffffffffffffffff811182821017156126a5576126a561266c565b604051601f8201601f1916810167ffffffffffffffff811182821017156126f7576126f761266c565b604052919050565b600067ffffffffffffffff8211156127195761271961266c565b5060051b60200190565b6001600160a01b03811681146102e157600080fd5b803561274381612723565b919050565b600061275b612756846126ff565b6126ce565b838152905060208101600684901b83018581111561277857600080fd5b835b818110156127e357600060408289031215612793578081fd5b6040805190810167ffffffffffffffff811182821017156127b6576127b661266c565b604052823591506127c682612723565b90815260208281013581830152908452929092019160400161277a565b5050509392505050565b600082601f8301126127fe57600080fd5b610f2c83833560208501612748565b600082601f83011261281e57600080fd5b813561282c612756826126ff565b8082825260208201915060208360051b86010192508583111561284e57600080fd5b602085015b838110156128f257803567ffffffffffffffff81111561287257600080fd5b8601603f8101881361288357600080fd5b602081013567ffffffffffffffff8111156128a0576128a061266c565b6128b3601f8201601f19166020016126ce565b8181526040838301018a10156128c857600080fd5b81604084016020830137600060208383010152808652505050602083019250602081019050612853565b5095945050505050565b600082601f83011261290d57600080fd5b813561291b612756826126ff565b8082825260208201915060208360051b86010192508583111561293d57600080fd5b602085015b838110156128f25780358060020b811461295b57600080fd5b835260209283019201612942565b600082601f83011261297a57600080fd5b8135612988612756826126ff565b8082825260208201915060208360051b8601019250858311156129aa57600080fd5b602085015b838110156128f25780358352602092830192016129af565b80151581146102e157600080fd5b8035612743816129c7565b600060c082840312156129f257600080fd5b6129fa612682565b9050612a0582612738565b8152602082013567ffffffffffffffff811115612a2157600080fd5b612a2d848285016128fc565b602083015250604082013567ffffffffffffffff811115612a4d57600080fd5b612a5984828501612969565b604083015250612a6b606083016129d5565b6060820152612a7c608083016129d5565b608082015260a09182013591810191909152919050565b60008060408385031215612aa657600080fd5b823567ffffffffffffffff811115612abd57600080fd5b830160608186031215612acf57600080fd5b612ad76126ab565b813567ffffffffffffffff811115612aee57600080fd5b8201601f81018713612aff57600080fd5b612b0e87823560208401612748565b825250602082013567ffffffffffffffff811115612b2b57600080fd5b612b37878285016127ed565b602083015250604082013567ffffffffffffffff811115612b5757600080fd5b612b638782850161280d565b604083015250925050602083013567ffffffffffffffff811115612b8657600080fd5b612b92858286016129e0565b9150509250929050565b60006060828403128015612baf57600080fd5b50612bb86126ab565b8235612bc381612723565b8152602083810135908201526040928301359281019290925250919050565b600060208284031215612bf457600080fd5b5035919050565b634e487b7160e01b600052603260045260246000fd5b600060208284031215612c2357600080fd5b8151612c2e816129c7565b9392505050565b60008060408385031215612c4857600080fd5b8251612c5381612723565b6020840151909250612c6481612723565b809150509250929050565b600060208284031215612c8157600080fd5b5051919050565b60008060408385031215612c9b57600080fd5b505080516020909101519092909150565b634e487b7160e01b600052601160045260246000fd5b81810381811115610f2f57610f2f612cac565b600081518084526020840193506020830160005b82811015612d105781516001600160a01b0316865260209586019590910190600101612ce9565b5093949350505050565b600081518084526020840193506020830160005b82811015612d10578151865260209586019590910190600101612d2e565b608081526000612d5f6080830187612cd5565b8281036020840152612d718187612d1a565b90508281036040840152612d858186612d1a565b90508281036060840152612d998185612d1a565b979650505050505050565b60c081526000612db760c0830189612cd5565b8281036020840152612dc98189612d1a565b90508281036040840152612ddd8188612d1a565b90508281036060840152612df18187612d1a565b6080840195909552505090151560a090910152949350505050565b6000825160005b81811015612e2d5760208186018101518583015201612e13565b506000920191825250919050565b604081526000612e4e6040830185612cd5565b8281036020840152612e608185612d1a565b95945050505050565b600060208284031215612e7b57600080fd5b8151612c2e81612723565b600060208284031215612e9857600080fd5b81516fffffffffffffffffffffffffffffffff81168114612c2e57600080fd5b80820180821115610f2f57610f2f612cac565b600082612ee857634e487b7160e01b600052601260045260246000fd5b500490565b600060a082016001600160a01b03881683528660208401526001600160a01b0386166040840152841515606084015260a0608084015280845180835260c08501915060208601925060005b81811015612f5957835160020b835260209384019390920191600101612f38565b50909998505050505050505050565b60008060008060808587031215612f7e57600080fd5b50508251602084015160408501516060909501519196909550909250905056fea2646970667358221220d66e738b12f7bdabf8a21f4bc451369ec69bf61278dc508a63f65cc660aa154f64736f6c634300081b0033",
  "devdoc": {
    "errors": {
      "SimulationResult(address[],uint256[],uint256[],uint256[],uint256,bool)": [
        {
          "params": {
            "amountToSwap": "Amount of tokens needed to be swapped secondarily",
            "initialAmounts": "Amounts of tokens after swap",
            "putAmounts": "Amounts of tokens put into the pool",
            "returnedAmounts": "Amounts of tokens returned to the user",
            "swapSide": "Flag indicating if swap token0 to token1 or vice versa",
            "tokens": "Array of pool token addresses"
          }
        }
      ]
    },
    "events": {
      "InputTokens(address[],uint256[])": {
        "params": {
          "amounts": "Array of input token amounts",
          "tokens": "Array of input token addresses"
        }
      },
      "OutputTokens(address[],uint256[])": {
        "params": {
          "amounts": "Array of output token amounts",
          "tokens": "Array of output token addresses"
        }
      },
      "TokenId(uint256)": {
        "params": {
          "tokenId": "The ID of the token"
        }
      },
      "ZapResult(address[],uint256[],uint256[],uint256[])": {
        "params": {
          "initialAmounts": "Amounts of tokens after swap",
          "putAmounts": "Amounts of tokens put into the pool",
          "returnedAmounts": "Amounts of tokens returned to the user",
          "tokens": "Array of pool token addresses"
        }
      }
    },
    "kind": "dev",
    "methods": {
      "zapIn(((address,uint256)[],(address,uint256)[],bytes[]),(address,int24[],uint256[],bool,bool,uint256))": {
        "params": {
          "paramsData": "The parameters for the zap",
          "swapData": "The swap data for the zap"
        }
      },
      "zapOut(uint256)": {
        "params": {
          "tokenId": "The ID of the token to zap out of"
        }
      }
    },
    "version": 1
  },
  "userdoc": {
    "errors": {
      "SimulationResult(address[],uint256[],uint256[],uint256[],uint256,bool)": [
        {
          "notice": "Error thrown with the simulation result of a zap operation"
        }
      ]
    },
    "events": {
      "InputTokens(address[],uint256[])": {
        "notice": "Emitted after swap"
      },
      "OutputTokens(address[],uint256[])": {
        "notice": "Emitted after swap"
      },
      "TokenId(uint256)": {
        "notice": "Emitted when a new token ID is generated"
      },
      "ZapResult(address[],uint256[],uint256[],uint256[])": {
        "notice": "Emitted with the result of a zap operation"
      }
    },
    "kind": "user",
    "methods": {
      "zapIn(((address,uint256)[],(address,uint256)[],bytes[]),(address,int24[],uint256[],bool,bool,uint256))": {
        "notice": "Zaps in to a liquidity position"
      },
      "zapOut(uint256)": {
        "notice": "Zaps out of a liquidity position"
      }
    },
    "version": 1
  },
  "storageLayout": {
    "storage": [],
    "types": null
  }
}